:020000040800F2
:1000000000000120810700082106000827060008DB
:100010002D0600083306000839060008000000001D
:100020000000000000000000000000003F06000883
:100030004D060008000000005B0600086906000885
:10004000D1070008D1070008D1070008D107000830
:10005000D1070008D1070008D1070008D107000820
:10006000D1070008D1070008D1070008D107000810
:10007000D1070008D1070008D1070008D107000800
:10008000D1070008D1070008D1070008D1070008F0
:10009000D1070008D1070008D1070008D1070008E0
:1000A000D1070008D1070008D1070008D1070008D0
:1000B000D1070008D1070008D1070008D1070008C0
:1000C000D1070008D1070008D1070008D1070008B0
:1000D000D1070008D1070008D1070008D1070008A0
:1000E000D1070008D1070008D1070008D107000890
:1000F000D1070008D1070008D1070008D107000880
:10010000D10700080000000000000000D10700082F
:10011000D1070008D1070008D1070008D10700085F
:10012000D1070008D1070008D1070008D10700084F
:10013000D1070008D10700080000000000000000FF
:10014000D1070008D1070008D1070008000000000F
:10015000000000000000000000000000000000009F
:10016000D1070008D1070008D1070008D10700080F
:10017000D1070008D1070008D1070008D1070008FF
:10018000D1070008D10700080000000000000000AF
:04019000D10700088B
:1001940010B5054C237833B9044B13B10448AFF3BD
:1001A40000800123237010BD100000200000000017
:1001B400A831000808B5034B1BB103490348AFF34A
:1001C400008008BD0000000014000020A8310008D1
:1001D40080B485B000AF78607B6803F1007303F5E9
:1001E400FF339B001B68FB60FB6818461437BD4651
:1001F4005DF8047B7047000080B584B000AF786080
:100204000023FB8102E0FB890133FB81FB897A68CF
:1002140013441B78002BF6D1FA89642379680348C8
:1002240002F07AFB00BF1037BD4680BD34000020C9
:1002340080B58AB000AF07F1140300221A605A6037
:100244009A60DA601A613A4B5B69394A43F40023D5
:100254005361374B5B6903F400233B613B69344BC7
:100264005B69334A43F480035361314B5B6903F4A4
:100274008003FB60FB682E4B5B692D4A43F400331B
:1002840053612B4B5B6903F40033BB60BB68284BA1
:100294005B69274A43F480235361254B5B6903F46C
:1002A40080237B607B68224B5B69214A43F4801383
:1002B40053611F4B5B6903F480133B603B6843F657
:1002C400FF737B610323BB610023FB6107F114030C
:1002D4001946184800F0C4FD49F6FF137B61032357
:1002E400BB610023FB6107F1140319464FF09040F2
:1002F40000F0B6FD4FF6FF737B610323BB6100235F
:10030400FB6107F1140319460B4800F0A9FD04230F
:100314007B610323BB610023FB6107F114031946CE
:10032400064800F09DFD00BF2837BD4680BD00BFD4
:10033400001002400008004800040048000C004877
:1003440080B586B000AF02237B600123BB6001232C
:10035400FB6003233B613B1D1946034800F080FD0D
:1003640000BF1837BD4680BD0008004880B400AF08
:10037400BFF34F8F00BF064BDB6803F4E062044910
:10038400044B1343CB60BFF34F8F00BF00BFFDE7A7
:1003940000ED00E00400FA0580B584B000AF00F081
:1003A40017FA00F059F8FFF743FF00F073F9002043
:1003B400FFF70EFFB860BB68102B1FD11E48FFF774
:1003C4001BFF0223FB6000F099F80346FB71FB68F6
:1003D400013BFB60FB68002B02D0FB79002BF2D0C1
:1003E400FB68002B0AD1FFF7ABFF0221134800F092
:1003F400C1FE4FF4FA7000F051FAF6E7104B1A6898
:10040400104B1340B3F1005F15D10F48FFF7F4FE12
:100414000E4B1B680E4A13600D4B1B681A460D4B9E
:100424001A60074B1B683B603B6883F3088800BF76
:10043400084B1B689847FEE7C031000800080048D5
:10044400005000080000FE2FDC31000804500008B2
:100454002C0000203000002080B5A6B000AF07F1CA
:10046400700328220021184602F094FE07F15C0371
:1004740000221A605A609A60DA601A613B1D5822A1
:100484000021184602F086FE02233B670123FB6726
:100494001023C7F880300023C7F8883007F17003B1
:1004A400184600F081FE0346002B01D000F08DF8C1
:1004B4000F23FB6500233B6600237B660023BB669A
:1004C4000023FB6607F15C030021184601F082FD5E
:1004D4000346002B01D000F078F801237B60002351
:1004E400FB603B1D184601F0ABFF0346002B01D017
:1004F40000F06BF800BF9837BD4680BD80B584B06E
:1005040000AF1D4BFB601D4B3B601D4BBB600123CB
:10051400FB711C48FFF770FE72B600BF00F038FB99
:100524003968F86800F034F819E0BB681B681A46AB
:100534004FF00003F968022000F0BAFA034603F012
:100544000103012B05D10023FB710F48FFF754FE73
:1005540009E0BB680433BB60FB680433FB60BB6821
:100564000A4A9342E1D300F039FB62B600BFFB793B
:1005740018461037BD4680BD0050000800800308AF
:1005840000880308083200082432000800B806086E
:1005940080B586B000AF7860396000237B610023AA
:1005A400BB607B68FB603A687B68D31ADB0A3B61FB
:1005B40007F1140207F108031146184600F0ACFBDA
:1005C4007B6918461837BD4680BD80B500AFFFF77C
:1005D400CDFE000080B483B000AF0F4B9B690E4A80
:1005E40043F0010393610C4B9B6903F001037B60AF
:1005F4007B68094BDB69084A43F08053D361064B9F
:10060400DB6903F080533B603B6800BF0C37BD4699
:100614005DF8047B704700BF0010024080B400AF57
:10062400FEE780B400AFFEE780B400AFFEE780B41D
:1006340000AFFEE780B400AFFEE780B400AF00BFB8
:10064400BD465DF8047B704780B400AF00BFBD4673
:100654005DF8047B704780B400AF00BFBD465DF811
:10066400047B704780B500AF00F0F8F800BF80BD90
:1006740080B400AF064BD3F88830054A43F47003C6
:10068400C2F8883000BFBD465DF8047B704700BFE8
:1006940000ED00E080B500AF144B154A1A60134B0F
:1006A4004FF4E1325A60114B00229A600F4B002242
:1006B400DA600E4B00221A610C4B0C225A610B4B70
:1006C40000229A61094B0022DA61084B00221A6267
:1006D400064B00225A62054802F0D0F80346002B6C
:1006E40001D0FFF772FF00BF80BD00BF34000020BF
:1006F4000038014080B58AB000AF786007F1140378
:1007040000221A605A609A60DA601A617B681B687A
:10071400184A934229D1184B9B69174A43F48043E2
:100724009361154B9B6903F480433B613B69124B16
:100734005B69114A43F4003353610F4B5B6903F463
:100744000033FB60FB684FF4C0637B610223BB6131
:100754000023FB6103233B6207237B6207F114033D
:1007640019464FF0904000F07BFB00BF2837BD4690
:1007740080BD00BF0038014000100240DFF834D0D3
:100784000D480E490E4A002302E0D458C4500433E5
:10079400C4188C42F9D30B4A0B4C002301E01360BC
:1007A4000432A242FBD3FFF763FF02F0CFFCFFF752
:1007B400F3FDFEE700000120000000200C000020F3
:1007C400A032000810000020E0000020FEE7000036
:1007D40080B500AF084B1B68074A43F01003136051
:1007E400032000F031F9002000F008F8FFF7F2FED2
:1007F4000023184680BD00BF0020024080B582B0AF
:1008040000AF7860124B1A68124B1B7819464FF4EC
:100814007A73B3FBF1F3B2FBF3F3184600F03BF940
:100824000346002B01D001230EE07B680F2B0AD86E
:10083400002279684FF0FF3000F011F9064A7B6816
:100844001360002300E0012318460837BD4680BD2D
:1008540000000020080000200400002080B400AF45
:10086400064B1B781A46064B1B681344044A136054
:1008740000BFBD465DF8047B704700BF0800002040
:10088400B800002080B400AF034B1B681846BD4677
:100894005DF8047B704700BFB800002080B584B0C9
:1008A40000AF7860FFF7EEFFB8607B68FB60FB6821
:1008B400B3F1FF3F05D00A4B1B781A46FB6813447B
:1008C400FB6000BFFFF7DEFF0246BB68D31AFA687D
:1008D4009A42F7D800BF00BF1037BD4680BD00BFA5
:1008E4000800002080B485B000AF78607B6803F016
:1008F4000703FB600C4BDB68BB60BA684FF6FF0371
:100904001340BB60FB681A02BB68134343F0BF6328
:1009140043F40033BB60044ABB68D36000BF1437A0
:10092400BD465DF8047B704700ED00E080B400AF85
:10093400044BDB681B0A03F007031846BD465DF849
:10094400047B704700ED00E080B483B000AF034641
:100954003960FB7197F90730002B0ADB3B68DAB288
:100964000C4997F907301201D2B20B4483F80023E3
:100974000AE03B68DAB20849FB7903F00F03043B51
:100984001201D2B20B441A7600BF0C37BD465DF893
:10099400047B704700E100E000ED00E080B489B022
:1009A40000AFF860B9607A60FB6803F00703FB618D
:1009B400FB69C3F10703042B28BF0423BB61FB6954
:1009C4000433062B02D9FB69033B00E000237B615F
:1009D4004FF0FF32BB6902FA03F3DA43BB681A40F3
:1009E4007B699A404FF0FF317B6901FA03F3D943E5
:1009F4007B680B40134318462437BD465DF8047BDF
:100A04007047000080B582B000AF78607B68013B1E
:100A1400B3F1807F01D301230FE00A4A7B68013BD5
:100A240053600F214FF0FF30FFF78EFF054B00227C
:100A34009A60044B07221A60002318460837BD4603
:100A440080BD00BF10E000E080B582B000AF7860E8
:100A54007868FFF747FF00BF0837BD4680BD80B503
:100A640086B000AF0346B9607A60FB7300237B61F4
:100A7400FFF75CFF78617A68B9687869FFF78EFFE1
:100A8400024697F90F3011461846FFF75DFF00BF85
:100A94001837BD4680BD80B582B000AF78607868F5
:100AA400FFF7B0FF034618460837BD4680BD000077
:100AB400F0B587B000AFF860B960C7E9002301233F
:100AC400FB750023BB7500237B752F4B1B7E012B0D
:100AD40001D1022354E02C4B01221A764CF25030FF
:100AE40000F0A8F80346FB75FB7D002B44D1FB689E
:100AF400012B02D101237B7507E0FB68022B02D195
:100B040002237B7501E004237B750023BB752DE074
:100B1400BB7D5A00BB6802EB030CBB7D1901D7E90E
:100B24000023C1F12006A1F1200022FA01F403FA06
:100B340006F6344323FA00F0044323FA01F5A3B282
:100B44001946604600F05AF84CF2503000F072F842
:100B54000346FB750D4B1B690C4A23F0010313611B
:100B6400FB7D002B07D1BB7D0133BB75BA7D7B7D3B
:100B74009A42CDD300E000BF034B00221A76FB7DDE
:100B840018461C37BD46F0BDC000002000200240BE
:100B940080B483B000AF0023FB710D4B1B6903F0DD
:100BA4008003002B0DD00A4B0A4A5A60084B0A4AAC
:100BB4005A60074B1B6903F08003002B01D001230B
:100BC400FB71FB7918460C37BD465DF8047B704712
:100BD4000020024023016745AB89EFCD80B400AF0C
:100BE400054B1B69044A43F0800313610023184634
:100BF400BD465DF8047B70470020024080B483B09A
:100C040000AF78600B467B80084B0022DA61084B0A
:100C14001B69074A43F0010313617B687A881A80D1
:100C240000BF0C37BD465DF8047B7047C000002050
:100C34000020024080B584B000AF7860FFF722FE48
:100C4400F86010E07B68B3F1FF3F0CD07B68002BA9
:100C540007D0FFF717FE0246FB68D31A7A689A4258
:100C640001D203231FE0124BDB6803F00103012BC5
:100C7400E8D00F4BDB6803F02003202B02D10C4B90
:100C84002022DA600A4BDB6803F01003102B05D036
:100C9400074BDB6803F00403042B03D100F00AF8CC
:100CA400012300E0002318461037BD4680BD00BF75
:100CB4000020024080B483B000AF00237B60144B5B
:100CC400DB6803F01003102B09D1124BDB6943F0EE
:100CD4000203104AD3617B6843F010037B600C4B22
:100CE400DB6803F00403042B09D10A4BDB6943F0EE
:100CF4000103084AD3617B6843F004037B60044A20
:100D04007B68D36000BF0C37BD465DF8047B704739
:100D140000200240C000002080B584B000AF78609D
:100D240039600123FB730023BB602E4B1B7E012B18
:100D340001D1022352E02B4B01221A767B681B68F7
:100D4400012B15D14CF25030FFF774FF0346002BF2
:100D540040D100F04BF84CF25030FFF76BFF0346E4
:100D6400FB73214B1B69204A23F00403136131E018
:100D74004CF25030FFF75EFF0346002B2AD13B684C
:100D84004FF0FF321A607B685B68BB6019E0B8689B
:100D940000F046F84CF25030FFF74CFF0346FB736B
:100DA400114B1B69104A23F002031361FB7B002BD8
:100DB40003D03B68BA681A600CE0BB6803F50063B3
:100DC400BB607B689B68DA027B685B681344BA6823
:100DD4009A42DCD3034B00221A76FB7B1846103769
:100DE400BD4680BDC00000200020024080B400AF9A
:100DF400094B0022DA61094B1B69084A43F00403DA
:100E04001361064B1B69054A43F04003136100BF9D
:100E1400BD465DF8047B7047C000002000200240FE
:100E240080B483B000AF78600B4B0022DA610B4BC7
:100E34001B690A4A43F002031361084A7B68536141
:100E4400064B1B69054A43F04003136100BF0C378E
:100E5400BD465DF8047B7047C000002000200240BE
:100E640080B487B000AF7860396000237B6160E1B3
:100E74003B681A6801217B6901FA03F31340FB60A4
:100E8400FB68002B00F052813B685B6803F00303AE
:100E9400012B05D03B685B6803F00303022B30D1C0
:100EA4007B689B683B617B695B00032202FA03F366
:100EB400DB433A6913403B613B68DA687B695B005A
:100EC40002FA03F33A6913433B617B683A699A6017
:100ED4007B685B683B6101227B6902FA03F3DB43B5
:100EE4003A6913403B613B685B681B0903F00102EC
:100EF4007B6902FA03F33A6913433B617B683A69FD
:100F04005A603B685B6803F00303032B17D07B68CC
:100F1400DB683B617B695B00032202FA03F3DB437A
:100F24003A6913403B613B689A687B695B0002FA4B
:100F340003F33A6913433B617B683A69DA603B68BF
:100F44005B6803F00303022B23D17B69DA087B6817
:100F5400083253F822303B617B6903F007039B009E
:100F64000F2202FA03F3DB433A6913403B613B6807
:100F74001A697B6903F007039B0002FA03F33A69D9
:100F840013433B617B69DA087B680832396943F8AB
:100F940022107B681B683B617B695B00032202FAB9
:100FA40003F3DB433A6913403B613B685B6803F03E
:100FB40003027B695B0002FA03F33A6913433B6162
:100FC4007B683A691A603B685B6803F44033002B22
:100FD40000F0AC805E4B9B695D4A43F00103936172
:100FE4005B4B9B6903F00103BB60BB68594A7B6997
:100FF4009B08023352F823303B617B6903F00303FF
:101004009B000F2202FA03F3DB433A6913403B616E
:101014007B68B3F1904F25D07B684F4A93421FD031
:101024007B684E4A934219D07B684D4A934213D051
:101034007B684C4A93420DD07B684B4A934207D05D
:101044007B684A4A934201D106230CE007230AE055
:10105400052308E0042306E0032304E0022302E05E
:10106400012300E000237A6902F003029200934016
:101074003A6913433B6137497B699B0802333A69F8
:1010840041F823203A4B1B683B61FB68DB433A6918
:1010940013403B613B685B6803F48033002B03D04F
:1010A4003A69FB6813433B61314A3B691360304B37
:1010B4005B683B61FB68DB433A6913403B613B6817
:1010C4005B6803F40033002B03D03A69FB681343D5
:1010D4003B61274A3B695360254B9B683B61FB6836
:1010E400DB433A6913403B613B685B6803F480135C
:1010F400002B03D03A69FB6813433B611C4A3B69EC
:1011040093601B4BDB683B61FB68DB433A6913402C
:101114003B613B685B6803F40013002B03D03A691E
:10112400FB6813433B61124A3B69D3607B6901331B
:101134007B613B681A687B6922FA03F3002B7FF416
:1011440097AE00BF00BF1C37BD465DF8047B7047F7
:10115400001002400000014000040048000800485C
:10116400000C004800100048001400480018004813
:101174000004014080B485B000AF78600B467B80EA
:101184007B685B69FB607A88FB6813401A04FB6820
:10119400D9437B880B401A437B689A6100BF14379C
:1011A400BD465DF8047B704780B5ADF5027D00AFA8
:1011B4003B1D18603B1D1B68002B02D1012300F06E
:1011C40001BF3B1D1B681B6803F00103002B00F0EB
:1011D4006081AE4B5B6803F00C03042B0CD0AB4B6B
:1011E4005B6803F00C03082B59D1A84B5B6803F42C
:1011F400C033B3F5803F52D14FF40033C7F8F43114
:10120400D7F8F43193FAA3F3C7F8F031D7F8F031F3
:10121400B3FA83F3DBB25B09DBB243F00103DBB265
:10122400012B02D1994B1B6815E04FF40033C7F82A
:10123400EC31D7F8EC3193FAA3F3C7F8E8314FF463
:101244000033C7F8E431D7F8E43193FAA3F3C7F8CD
:10125400E0318E4B5B6A4FF40032C7F8DC21D7F8DB
:10126400DC2192FAA2F2C7F8D821D7F8D821B2FA31
:1012740082F2D2B242F02002D2B202F01F02012165
:1012840001FA02F21340002B00F002813B1D1B689F
:101294005B68002B40F0FC80012300F093BE3B1DF3
:1012A4001B685B68B3F5803F06D1784B1B68774AAF
:1012B40043F48033136030E03B1D1B685B68002BF4
:1012C4000CD1724B1B68714A23F4803313606F4B4B
:1012D4001B686E4A23F4802313601EE03B1D1B68C9
:1012E4005B68B3F5A02F0CD1684B1B68674A43F4C5
:1012F40080231360654B1B68644A43F48033136096
:101304000BE0624B1B68614A23F4803313605F4B2C
:101314001B685E4A23F4802313603B1D1B685B68D3
:10132400002B59D0FFF7AEFAC7F800020AE0FFF726
:10133400A9FA0246D7F80032D31A642B02D9032340
:1013440000F040BE4FF40033C7F8D431D7F8D4319D
:1013540093FAA3F3C7F8D031D7F8D031B3FA83F3B3
:10136400DBB25B09DBB243F00103DBB2012B02D138
:10137400464B1B6815E04FF40033C7F8CC31D7F85F
:10138400CC3193FAA3F3C7F8C8314FF40033C7F84C
:10139400C431D7F8C43193FAA3F3C7F8C0313B4B37
:1013A4005B6A4FF40032C7F8BC21D7F8BC2192FA2B
:1013B400A2F2C7F8B821D7F8B821B2FA82F2D2B2B1
:1013C40042F02002D2B202F01F02012101FA02F21D
:1013D4001340002BABD05CE0FFF754FAC7F80002CF
:1013E4000AE0FFF74FFA0246D7F80032D31A642B0B
:1013F40002D9032300F0E6BD4FF40033C7F8B4313B
:10140400D7F8B43193FAA3F3C7F8B031D7F8B031B1
:10141400B3FA83F3DBB25B09DBB243F00103DBB263
:10142400012B02D1194B1B6815E04FF40033C7F8A8
:10143400AC31D7F8AC3193FAA3F3C7F8A8314FF421
:101444000033C7F8A431D7F8A43193FAA3F3C7F84B
:10145400A0310E4B5B6A4FF40032C7F89C21D7F8D9
:101464009C2192FAA2F2C7F89821D7F89821B2FAEF
:1014740082F2D2B242F02002D2B202F01F02012163
:1014840001FA02F21340002BABD102E0001002403B
:1014940000BF3B1D1B681B6803F00203002B00F018
:1014A4007081D04B5B6803F00C03002B0CD0CD4B48
:1014B4005B6803F00C03082B6DD1CA4B5B6803F423
:1014C400C033B3F5004F66D10223C7F89431D7F87F
:1014D400943193FAA3F3C7F89031D7F89031B3FA63
:1014E40083F3DBB25B09DBB243F00103DBB2012B14
:1014F40002D1BC4B1B6813E00223C7F88C31D7F828
:101504008C3193FAA3F3C7F888310223C7F88431E6
:10151400D7F8843193FAA3F3C7F88031B14B5B6AEF
:101524000222C7F87C21D7F87C2192FAA2F2C7F8EC
:101534007821D7F87821B2FA82F2D2B242F02002AE
:10154400D2B202F01F02012101FA02F21340002B71
:1015540007D03B1D1B68DB68012B02D0012300F080
:1015640031BDA04B1B6823F0F8023B1D1B681B69AF
:10157400F821C7F87411D7F8741191FAA1F1C7F8DA
:101584007011D7F87011B1FA81F1C9B28B40954945
:1015940013430B60F5E03B1D1B68DB68002B00F078
:1015A40085800123C7F86C31D7F86C3193FAA3F323
:1015B400C7F86831D7F86831B3FA83F3DBB203F1C3
:1015C400845303F584139B001A4601231360FFF729
:1015D40059F9C7F800020AE0FFF754F90246D7F8B0
:1015E4000032D31A022B02D9032300F0EBBC0223EE
:1015F400C7F86431D7F8643193FAA3F3C7F86031BC
:10160400D7F86031B3FA83F3DBB25B09DBB243F0A2
:101614000103DBB2012B02D1724B1B6813E00223DE
:10162400C7F85C31D7F85C3193FAA3F3C7F85831A3
:101634000223C7F85431D7F8543193FAA3F3C7F807
:101644005031684B5B6A0222C7F84C21D7F84C2111
:1016540092FAA2F2C7F84821D7F84821B2FA82F2E6
:10166400D2B242F02002D2B202F01F02012101FAEA
:1016740002F21340002BAFD05A4B1B6823F0F80240
:101684003B1D1B681B69F821C7F84411D7F84411A6
:1016940091FAA1F1C7F84011D7F84011B1FA81F1DC
:1016A400C9B28B404F4913430B606AE00123C7F86A
:1016B4003C31D7F83C3193FAA3F3C7F83831D7F863
:1016C4003831B3FA83F3DBB203F1845303F58413A3
:1016D4009B001A4600231360FFF7D4F8C7F80002F2
:1016E4000AE0FFF7CFF80246D7F80032D31A022BEC
:1016F40002D9032300F066BC0223C7F83431D7F8BB
:10170400343193FAA3F3C7F83031D7F83031B3FA50
:1017140083F3DBB25B09DBB243F00103DBB2012BE1
:1017240002D1304B1B6813E00223C7F82C31D7F8E1
:101734002C3193FAA3F3C7F828310223C7F82431D4
:10174400D7F8243193FAA3F3C7F82031254B5B6A09
:101754000222C7F81C21D7F81C2192FAA2F2C7F87A
:101764001821D7F81821B2FA82F2D2B242F020023C
:10177400D2B202F01F02012101FA02F21340002B3F
:10178400AFD13B1D1B681B6803F00803002B00F05E
:10179400DA803B1D1B685B69002B69D00123C7F805
:1017A4001431D7F8143193FAA3F3C7F81031D7F8EA
:1017B4001031B3FA83F3DBB21A460B4B13449B008C
:1017C4001A4601231360FFF75DF8C7F800020DE025
:1017D400FFF758F80246D7F80032D31A022B05D97E
:1017E4000323EFE300100240208190100223C7F886
:1017F4000C31D7F80C3193FAA3F207F584731A600D
:1018040007F5827302221A6007F582731B6893FA44
:10181400A3F207F580731A6007F1FC0302221A6031
:1018240007F1FC031B6893FAA3F207F1F8031A60AB
:10183400A44B5A6A07F1F4030221196007F1F40377
:101844001B6893FAA3F107F1F003196007F1F003A1
:101854001B68B3FA83F3DBB243F06003DBB203F03B
:101864001F03012101FA03F31340002BB0D06AE0F7
:1018740007F1EC0301221A6007F1EC031B6893FAE9
:10188400A3F207F1E8031A6007F1E8031B68B3FA4F
:1018940083F3DBB21A468C4B13449B001A46002395
:1018A4001360FEF7EFFFC7F8000209E0FEF7EAFF56
:1018B4000246D7F80032D31A022B01D9032381E35D
:1018C40007F1E40302221A6007F1E4031B6893FAA8
:1018D400A3F207F1E0031A6007F1DC0302221A60A5
:1018E40007F1DC031B6893FAA3F207F1D8031A602B
:1018F40007F1D40302221A6007F1D4031B6893FA98
:10190400A3F207F1D0031A606E4B5A6A07F1CC03B5
:101914000221196007F1CC031B6893FAA3F107F1C4
:10192400C803196007F1C8031B68B3FA83F3DBB279
:1019340043F06003DBB203F01F03012101FA03F358
:101944001340002BB2D13B1D1B681B6803F004033A
:10195400002B00F05781002387F80732594BDB69CD
:1019640003F08053002B12D1564BDB69554A43F0E8
:101974008053D361534BDB6903F0805207F10C03AE
:101984001A6007F10C031B68012387F807324F4BD9
:101994001B6803F48073002B1AD14C4B1B684B4A11
:1019A40043F480731360FEF76DFFC7F8000209E08B
:1019B400FEF768FF0246D7F80032D31A642B01D928
:1019C4000323FFE2414B1B6803F48073002BEFD029
:1019D4003B1D1B689B68012B06D13A4B1B6A394A95
:1019E40043F0010313622FE03B1D1B689B68002B2F
:1019F4000CD1344B1B6A334A23F001031362314B7D
:101A04001B6A304A23F0040313621DE03B1D1B686C
:101A14009B68052B0CD12B4B1B6A2A4A43F0040309
:101A24001362284B1B6A274A43F0010313620BE03D
:101A3400244B1B6A234A23F001031362214B1B6AC4
:101A4400204A23F0040313623B1D1B689B68002B90
:101A54006AD0FEF717FFC7F800020BE0FEF712FF8B
:101A64000246D7F80032D31A41F28832934201D9A0
:101A74000323A7E207F1C40302221A6007F1C40397
:101A84001B6893FAA3F207F1C0031A6007F1BC03C1
:101A940002221A6007F1BC031B6893FAA3F207F150
:101AA400B8031A6007F1B8031B68B3FA83F3DBB217
:101AB4005B09DBB243F00203DBB2022B08D1014B1A
:101AC4001B6A13E000100240208190100070004057
:101AD40007F1B40302221A6007F1B4031B6893FAF6
:101AE400A3F207F1B0031A60C04B5B6A07F1AC02C2
:101AF4000221116007F1AC02126892FAA2F107F117
:101B0400A802116007F1A8021268B2FA82F2D2B2F6
:101B140042F04002D2B202F01F02012101FA02F2A5
:101B24001340002B9AD063E0FEF7ACFEC7F8000226
:101B34000BE0FEF7A7FE0246D7F80032D31A41F2B3
:101B44008832934201D903233CE207F1A403022221
:101B54001A6007F1A4031B6893FAA3F207F1A00328
:101B64001A6007F19C0302221A6007F19C031B68A8
:101B740093FAA3F207F198031A6007F198031B681C
:101B8400B3FA83F3DBB25B09DBB243F00203DBB2EB
:101B9400022B02D1954B1B6A0DE007F1940302223C
:101BA4001A6007F194031B6893FAA3F207F19003F8
:101BB4001A608E4B5B6A07F18C020221116007F1F7
:101BC4008C02126892FAA2F107F18802116007F1FF
:101BD40088021268B2FA82F2D2B242F04002D2B261
:101BE40002F01F02012101FA02F21340002BA0D1DE
:101BF40097F80732012B05D17C4BDB697B4A23F034
:101C04008053D3613B1D1B689B69002B00F0D98175
:101C1400764B5B6803F00C03082B00F0A6813B1D98
:101C24001B689B69022B40F01E8107F184034FF06F
:101C340080721A6007F184031B6893FAA3F207F118
:101C440080031A6007F180031B68B3FA83F3DBB2E5
:101C540003F1845303F584139B001A460023136095
:101C6400FEF710FEC7F8000209E0FEF70BFE02467D
:101C7400D7F80032D31A022B01D90323A2E107F1CA
:101C84007C034FF000721A6007F17C031B6893FA1F
:101C9400A3F207F178031A6007F178031B68B3FA1B
:101CA40083F3DBB25B09DBB243F00103DBB2012B4C
:101CB40002D14E4B1B681BE007F174034FF0007216
:101CC4001A6007F174031B6893FAA3F207F1700317
:101CD4001A6007F16C034FF000721A6007F16C038D
:101CE4001B6893FAA3F207F168031A603F4B5B6A1F
:101CF40007F164024FF00071116007F16402126889
:101D040092FAA2F107F16002116007F16002126811
:101D1400B2FA82F2D2B242F02002D2B202F01F0230
:101D2400012101FA02F21340002B9ED12F4BDB6AF2
:101D340023F00F023B1D1B685B6A2C491343CB62E3
:101D44002A4B5B6823F476123B1D1B68196A3B1D02
:101D54001B68DB690B43254913434B6007F15C03A4
:101D64004FF080721A6007F15C031B6893FAA3F2C8
:101D740007F158031A6007F158031B68B3FA83F399
:101D8400DBB203F1845303F584139B001A46012349
:101D94001360FEF777FDC7F8000209E0FEF772FD55
:101DA4000246D7F80032D31A022B01D9032309E1E2
:101DB40007F154034FF000721A6007F154031B68D3
:101DC40093FAA3F207F150031A6007F150031B685A
:101DD400B3FA83F3DBB25B09DBB243F00103DBB29A
:101DE400012B05D1014B1B681EE000BF001002400F
:101DF40007F14C034FF000721A6007F14C031B68A3
:101E040093FAA3F207F148031A6007F144034FF071
:101E140000721A6007F144031B6893FAA3F207F1F6
:101E240040031A606A4B5B6A07F13C024FF0007191
:101E3400116007F13C02126892FAA2F107F138022C
:101E4400116007F138021268B2FA82F2D2B242F09B
:101E54002002D2B202F01F02012101FA02F2134061
:101E6400002B9BD0ADE007F134034FF080721A6071
:101E740007F134031B6893FAA3F207F130031A60E5
:101E840007F130031B68B3FA83F3DBB203F1845325
:101E940003F584139B001A4600231360FEF7F2FC3B
:101EA400C7F8000209E0FEF7EDFC0246D7F800325D
:101EB400D31A022B01D9032384E007F12C034FF03A
:101EC40000721A6007F12C031B6893FAA3F207F15E
:101ED40028031A6007F128031B68B3FA83F3DBB203
:101EE4005B09DBB243F00103DBB2012B02D1384BB7
:101EF4001B681BE007F124034FF000721A6007F11E
:101F040024031B6893FAA3F207F120031A6007F174
:101F14001C034FF000721A6007F11C031B6893FA4C
:101F2400A3F207F118031A60294B5B6A07F1140244
:101F34004FF00071116007F11402126892FAA2F1D5
:101F440007F11002116007F110021268B2FA82F26E
:101F5400D2B242F02002D2B202F01F02012101FAF1
:101F640002F21340002B9ED12BE03B1D1B689B69A2
:101F7400012B01D1012325E0154B5B68C7F8FC3127
:101F8400134BDB6AC7F8F831D7F8FC3103F4C032DD
:101F94003B1D1B68DB699A4211D1D7F8FC3103F46D
:101FA40070123B1D1B681B6A9A4208D1D7F8F8319E
:101FB40003F00F023B1D1B685B6A9A4201D00123A8
:101FC40000E00023184607F50277BD4680BD00BF38
:101FD4000010024080B59EB000AF786039600023E5
:101FE4007B677B68002B01D1012362E1904B1B6866
:101FF40003F007033A689A4210D98D4B1B6823F00B
:1020040007028B493B6813430B60894B1B6803F041
:1020140007033A689A4201D001234AE17B681B68AE
:1020240003F00203002B08D0824B5B6823F0F0021C
:102034007B689B687F4913434B607B681B6803F094
:102044000103002B00F0DC807B685B68012B3CD132
:102054004FF400333B673B6F93FAA3F3FB66FB6ECD
:10206400B3FA83F3DBB25B09DBB243F00103DBB207
:10207400012B02D16F4B1B680FE04FF40033BB669A
:10208400BB6E93FAA3F37B664FF400333B663B6E5F
:1020940093FAA3F3FB65674B5B6A4FF40032BA65AE
:1020A400BA6D92FAA2F27A657A6DB2FA82F2D2B27B
:1020B40042F02002D2B202F01F02012101FA02F220
:1020C4001340002B7BD10123F3E07B685B68022B78
:1020D4003CD14FF000733B653B6D93FAA3F3FB6473
:1020E400FB6CB3FA83F3DBB25B09DBB243F00103AD
:1020F400DBB2012B02D14F4B1B680FE04FF0007392
:10210400BB64BB6C93FAA3F37B644FF000733B6432
:102114003B6C93FAA3F3FB63464B5B6A4FF000728C
:10212400BA63BA6B92FAA2F27A637A6BB2FA82F267
:10213400D2B242F02002D2B202F01F02012101FA0F
:1021440002F21340002B3AD10123B2E002233B6395
:102154003B6B93FAA3F3FB62FB6AB3FA83F3DBB240
:102164005B09DBB243F00103DBB2012B02D1314B3B
:102174001B680DE00223BB62BB6A93FAA3F37B6284
:1021840002233B623B6A93FAA3F3FB61294B5B6A2C
:102194000222BA61BA6992FAA2F27A617A69B2FA4F
:1021A40082F2D2B242F02002D2B202F01F02012126
:1021B40001FA02F21340002B01D1012379E01D4BF7
:1021C4005B6823F003027B685B681A4913434B6026
:1021D400FEF758FB78670AE0FEF754FB02467B6F74
:1021E400D31A41F28832934201D9032361E0114B9F
:1021F4005B6803F00C027B685B689B009A42EBD13E
:102204000B4B1B6803F007033A689A4214D2084B3D
:102214001B6823F0070206493B6813430B60044B19
:102224001B6803F007033A689A4205D0012340E093
:1022340000200240001002407B681B6803F0040386
:10224400002B08D01D4B5B6823F4E0627B68DB68DD
:102254001A4913434B607B681B6803F00803002B87
:1022640009D0164B5B6823F460527B681B69DB0062
:10227400124913434B6000F029F801460F4B5B6889
:1022840003F0F003F0223A613A6992FAA2F2FA609A
:10229400FA68B2FA82F2D2B2D340094AD35C21FA84
:1022A40003F3084A1360084B1B681846FEF7A6FAA6
:1022B400002318467837BD4680BD00BF0010024099
:1022C40060320008000000200400002080B48BB0BD
:1022D40000AF0023FB610023BB6100237B6200236A
:1022E4007B6100233B622A4B5B68FB61FB6903F063
:1022F4000C03042B02D0082B03D03FE0254B3B6298
:102304003FE0FB6903F470134FF47012BA60BA68CB
:1023140092FAA2F27A607A68B2FA82F2D2B2D34026
:102324001D4AD35C7B611A4BDB6A03F00F030F2257
:102334003A613A6992FAA2F2FA60FA68B2FA82F25F
:10234400D2B2D340154AD35CBB61FB6903F480333A
:10235400002B08D00F4ABB69B2FBF3F27B6902FB86
:1023640003F37B6207E00B4ABB69B2FBF3F27B69C0
:1023740002FB03F37B627B6A3B6202E0054B3B6238
:1023840000BF3B6A18462C37BD465DF8047B704796
:102394000010024000127A007832000888320008E7
:1023A40080B400AF034B1B681846BD465DF8047B40
:1023B400704700BF0000002080B582B000AFFFF777
:1023C400EFFF01460B4B5B6803F4E0634FF4E062FC
:1023D4007A607A6892FAA2F23A603A68B2FA82F2C1
:1023E400D2B2D340044AD35C21FA03F31846083727
:1023F400BD4680BD001002407032000880B582B036
:1024040000AFFFF7CDFF01460B4B5B6803F460534D
:102414004FF460527A607A6892FAA2F23A603A68AB
:10242400B2FA82F2D2B2D340044AD35C21FA03F363
:1024340018460837BD4680BD0010024070320008BF
:1024440080B592B000AF786000233B640023FB6347
:10245400002387F847307B681B6803F48033002B24
:1024640000F0D4804E4BDB6903F08053002B0ED177
:102474004B4BDB694A4A43F08053D361484BDB69D9
:1024840003F08053BB60BB68012387F84730454B9A
:102494001B6803F48073002B18D1424B1B68414A1C
:1024A40043F480731360FEF7EDF9386408E0FEF737
:1024B400E9F902463B6CD31A642B01D90323D6E114
:1024C400384B1B6803F48073002BF0D0344B1B6A29
:1024D40003F44073FB63FB6B002B00F084807B6888
:1024E4005B6803F44073FA6B9A427CD02C4B1B6AF2
:1024F40023F44073FB634FF480333B633B6B93FAE9
:10250400A3F3FB62FB6AB3FA83F3DBB21A46264BEE
:1025140013449B001A46012313604FF48033BB63BA
:10252400BB6B93FAA3F37B637B6BB3FA83F3DBB2EA
:102534001A461D4B13449B001A4600231360184A85
:10254400FB6B1362FB6B03F00103002B4BD0FEF714
:1025540099F938640AE0FEF795F902463B6CD31A00
:1025640041F28832934201D9032380E10223BB6202
:10257400BB6A93FAA3F37B6202233B623B6A93FA3E
:10258400A3F3FB61FB69B3FA83F3DBB25B09DBB250
:1025940043F00203DBB2022B08D1014B1B6A0DE0AE
:1025A4000010024000700040008190100223BB61C3
:1025B400BB6993FAA3F37B61A04B5B6A02223A6185
:1025C4003A6992FAA2F2FA60FA68B2FA82F2D2B2E4
:1025D40042F04002D2B202F01F02012101FA02F2DB
:1025E4001340002BB7D0954B1B6A23F440727B68D1
:1025F4005B68924913430B6297F84730012B05D16E
:102604008E4BDB698D4A23F08053D3617B681B6852
:1026140003F00103002B08D0884B1B6B23F003024B
:102624007B689B68854913430B637B681B6803F0D5
:102634000203002B08D0814B1B6B23F440327B68D0
:10264400DB687E4913430B637B681B6803F0040358
:10265400002B08D0794B1B6B23F440227B681B6949
:10266400764913430B637B681B6803F02003002B3C
:1026740008D0724B1B6B23F010027B68DB696F4937
:1026840013430B637B681B6803F40033002B08D0EF
:102694006A4B5B6823F480027B685B6D6749134374
:1026A4004B607B681B6803F04003002B08D0634B2E
:1026B4001B6B23F020027B681B6A604913430B6386
:1026C4007B681B6803F48023002B08D05B4B1B6BD7
:1026D40023F040027B685B6A584913430B637B68B1
:1026E4001B6803F00803002B08D0544B1B6B23F426
:1026F40040127B685B69514913430B637B681B6819
:1027040003F01003002B08D04C4B1B6B23F4400246
:102714007B689B69494913430B637B681B6803F41B
:102724000073002B08D0454B5B6823F400027B68E0
:102734001B6B424913434B607B681B6803F08003A7
:10274400002B08D03D4BDB6A23F4F8727B689B6A4C
:102754003A491343CB627B681B6803F48073002BF4
:1027640008D0364BDB6A23F478527B68DB6A334942
:102774001343CB627B681B6803F48053002B08D09F
:102784002E4B1B6B23F480727B685B6B2B491343CA
:102794000B637B681B6803F40053002B08D0274BA2
:1027A4001B6B23F400727B681B6C244913430B637B
:1027B4007B681B6803F48013002B08D01F4B1B6B32
:1027C40023F080727B689B6B1C4913430B637B680B
:1027D4001B6803F40013002B08D0184B1B6B23F069
:1027E40000727B68DB6B154913430B637B681B68C2
:1027F40003F48003002B08D0104B1B6B23F480627E
:102804007B685B6C0D4913430B637B681B6803F4A3
:102814000003002B08D0094B1B6B23F400627B6878
:102824009B6C064913430B637B681B6803F080733E
:10283400002B0CD0014B1B6B02E000BF00100240C8
:1028440023F400527B68DB6C0B4913430B637B68F6
:102854001B6803F00073002B08D0074B1B6B23F499
:1028640000427B681B6D044913430B630023184625
:102874004837BD4680BD00BF0010024080B582B01D
:1028840000AF78607B68002B01D1012340E07B68B6
:102894009B6F002B06D17B68002283F87420786834
:1028A400FDF728FF7B6824229A677B681B681A68F7
:1028B4007B681B6822F001021A60786800F0C0F897
:1028C4000346012B01D1012322E07B685B6A002BC4
:1028D40002D0786800F08AFA7B681B685A687B68C3
:1028E4001B6822F490425A607B681B689A687B6874
:1028F4001B6822F02A029A607B681B681A687B684E
:102904001B6842F001021A60786800F011FB03466C
:1029140018460837BD4680BD80B58AB002AFF8605E
:10292400B9603B601346FB80FB689B6F202B40F033
:102934008280BB68002B02D0FB88002B01D10123CD
:102944007AE0FB6893F87430012B01D1022373E021
:10295400FB68012283F87420FB680022C3F88020FE
:10296400FB6821229A67FDF78DFF7861FB68FA887E
:10297400A3F85020FB68FA88A3F85220FB689B68F0
:10298400B3F5805F08D1FB681B69002B04D10023D9
:10299400FB61BB68BB6103E0BB68FB610023BB61F7
:1029A400FB68002283F874202DE03B6800937B6968
:1029B40000228021F86800F004FB0346002B01D0BC
:1029C400032339E0FB69002B0BD1BB691A88FB6830
:1029D4001B68C2F3080292B21A85BB690233BB6159
:1029E40008E0FB691A78FB681B6892B21A85FB69D8
:1029F4000133FB61FB68B3F852309BB2013B9AB2DE
:102A0400FB68A3F85220FB68B3F852309BB2002B4A
:102A1400CBD13B6800937B6900224021F86800F029
:102A2400D0FA0346002B01D0032305E0FB682022E3
:102A34009A67002300E0022318462037BD4680BD74
:102A440080B588B000AF78600023BB777B689A6854
:102A54007B681B691A437B685B691A437B68DB6983
:102A640013437B617B681B681A68AB4B13407A681D
:102A7400126879690B4313607B681B685B6823F4F5
:102A840040517B68DA687B681B680A435A607B683C
:102A94009B697B617B681B6A7A6913437B617B68F2
:102AA4001B689B6823F430617B681B687A690A435E
:102AB4009A607B681B68994A934220D1984B1B6BA0
:102AC40003F00303032B17D801A252F823F000BF2D
:102AD400E52A0008F12A0008F72A0008EB2A000872
:102AE4000123FB77B5E00223FB77B2E00423FB77F5
:102AF400AFE00823FB77ACE01023FB77A9E07B6809
:102B04001B68884A934224D1854B1B6B03F44033E2
:102B1400B3F5403F11D0B3F5403F17D8B3F5003FAC
:102B240011D0B3F5003F11D8002B03D0B3F5803F8B
:102B340006D00BE00023FB778BE00223FB7788E0D1
:102B44000423FB7785E00823FB7782E01023FB77DF
:102B54007FE07B681B68744A934224D1704B1B6BE3
:102B640003F44023B3F5402F11D0B3F5402F17D809
:102B7400B3F5002F11D0B3F5002F11D8002B03D0DB
:102B8400B3F5802F06D00BE00023FB7761E002232E
:102B9400FB775EE00423FB775BE00823FB7758E0D8
:102BA4001023FB7755E07B681B68604A934224D16D
:102BB4005B4B1B6B03F44013B3F5401F11D0B3F50B
:102BC400401F17D8B3F5001F11D0B3F5001F11D85B
:102BD400002B03D0B3F5801F06D00BE00023FB7756
:102BE40037E00223FB7734E00423FB7731E008234A
:102BF400FB772EE01023FB772BE07B681B684C4AA5
:102C0400934224D1464B1B6B03F44003B3F5400FAE
:102C140011D0B3F5400F17D8B3F5000F11D0B3F5A9
:102C2400000F11D8002B03D0B3F5800F06D00BE0B2
:102C34000023FB770DE00223FB770AE00423FB77F4
:102C440007E00823FB7704E01023FB7701E010235F
:102C5400FB777B68DB69B3F5004F6DD1FB7F082BF5
:102C640027D801A252F823F0912C0008992C0008CF
:102C7400A12C0008B72C0008A72C0008B72C0008CA
:102C8400B72C0008B72C0008AF2C0008FFF794FB02
:102C9400B86113E0FFF7B2FBB8610FE0254BBB61ED
:102CA4000CE0FFF713FBB86108E04FF40043BB618D
:102CB40004E00023BB610123BB7700BFBB69002B89
:102CC40000F08680BB695A007B685B685B081A4425
:102CD4007B685B68B2FBF3F39BB23B613B690F2BF0
:102CE40016D93B69B3F5803F12D23B699BB223F0FE
:102CF4000F03FB813B695B089BB203F007039AB2A5
:102D0400FB891343FB817B681B68FA89DA605FE007
:102D14000123BB775CE000BFF369FFEF003801409B
:102D2400001002400044004000480040004C0040B5
:102D34000050004000127A00FB7F082B27D801A224
:102D440052F823F06D2D0008752D00087D2D000824
:102D5400932D0008832D0008932D0008932D00085F
:102D6400932D00088B2D0008FFF726FBB86113E0B4
:102D7400FFF744FBB8610FE01B4BBB610CE0FFF7AE
:102D8400A5FAB86108E04FF40043BB6104E00023F6
:102D9400BB610123BB7700BFBB69002B18D07B68E4
:102DA4005B685A08BB691A447B685B68B2FBF3F33F
:102DB4009BB23B613B690F2B08D93B69B3F5803F5C
:102DC40004D27B681B683A69DA6001E00123BB77AF
:102DD4007B6800225A667B6800229A66BB7F18468D
:102DE4002037BD4680BD00BF00127A0080B483B096
:102DF40000AF78607B685B6A03F00103002B0AD0A4
:102E04007B681B685B6823F400317B689A6A7B6883
:102E14001B680A435A607B685B6A03F00203002B59
:102E24000AD07B681B685B6823F480317B68DA6AAC
:102E34007B681B680A435A607B685B6A03F004037F
:102E4400002B0AD07B681B685B6823F480217B68B5
:102E54001A6B7B681B680A435A607B685B6A03F0E1
:102E64000803002B0AD07B681B685B6823F40041CD
:102E74007B685A6B7B681B680A435A607B685B6A91
:102E840003F01003002B0AD07B681B689B6823F4B3
:102E940080517B689A6B7B681B680A439A607B68E5
:102EA4005B6A03F02003002B0AD07B681B689B68D5
:102EB40023F400517B68DA6B7B681B680A439A60D1
:102EC4007B685B6A03F04003002B1AD07B681B68A5
:102ED4005B6823F480117B681A6C7B681B680A4367
:102EE4005A607B681B6CB3F5801F0AD17B681B6832
:102EF4005B6823F4C0017B685A6C7B681B680A43D7
:102F04005A607B685B6A03F08003002B0AD07B68FD
:102F14001B685B6823F400217B689A6C7B681B68E0
:102F24000A435A6000BF0C37BD465DF8047B704706
:102F340080B586B002AF78607B680022C3F8802039
:102F4400FDF7A0FCF8607B681B681B6803F00803AE
:102F5400082B0ED16FF07E430093FB6800224FF4E0
:102F64000011786800F02DF80346002B01D00323EC
:102F740023E07B681B681B6803F00403042B0ED159
:102F84006FF07E430093FB6800224FF48001786861
:102F940000F017F80346002B01D003230DE07B68F3
:102FA40020229A677B682022DA677B6800221A66EF
:102FB4007B68002283F87420002318461037BD462E
:102FC40080BD80B59CB000AFF860B9603B6013462B
:102FD400FB71A5E0BB6FB3F1FF3F00F0A180FDF7EB
:102FE40051FC02463B68D31ABA6F9A4202D3BB6FB4
:102FF400002B3ED1FB681B683B653B6D53E8003FEB
:10300400FB64FB6C23F4D0737B66FB681B681A4675
:103014007B6EFB65BA65B96DFA6D41E800237B658B
:103024007B6D002BE6D1FB681B680833FB63FB6BED
:1030340053E8003FBB63BB6B23F001033B66FB68B3
:103044001B6808333A6EBA647B64796CBA6C41E8E5
:1030540000233B643B6C002BE5D1FB6820229A677C
:10306400FB682022DA67FB68002283F874200323BC
:1030740067E0FB681B681B6803F00403002B4FD058
:10308400FB681B68DB6903F40063B3F5006F47D189
:10309400FB681B684FF400621A62FB681B68BB6222
:1030A400BB6A53E8003F7B627B6A23F4D073FB6600
:1030B400FB681B681A46FB6E7B633A63396B7A6B59
:1030C40041E80023FB62FB6A002BE6D1FB681B6826
:1030D40008337B617B6953E8003F3B613B6923F024
:1030E4000103BB66FB681B680833BA6E3A62FB6176
:1030F400F9693A6A41E80023BB61BB69002BE5D159
:10310400FB6820229A67FB682022DA67FB6820228A
:10311400C3F88020FB68002283F87420032310E0A6
:10312400FB681B68DA69BB681340BA689A420CBF33
:1031340001230023DBB21A46FB799A423FF44AAFDB
:10314400002318467037BD4680BD000070B50D4D94
:103154000D4C641BA4100026A64209D10B4D0C4C47
:1031640000F020F8641BA4100026A64205D170BD0F
:1031740055F8043B98470136EEE755F8043B984769
:103184000136F2E7983200089832000898320008B5
:103194009C32000802440346934200D1704703F86E
:1031A400011BF9E7F8B500BFF8BC08BC9E467047A0
:0C31B400F8B500BFF8BC08BC9E46704790
:1031C0000A0A636F707920636F64652066726F6DA1
:1031D00020424C4B5F320D0A0000000052756E20F9
:1031E00070726F6772616D20696E20424C4B5F3167
:1031F0002066726F6D20426F6F746C6F61646572D0
:10320000202E2E2E0D0A0A005772697265206E65F7
:103210007720465720746F20424C4B5F312E0D0AA9
:10322000000000004552524F52210A0D00000000DC
:1032300057726974652070726576696F7573207650
:10324000657273696F6E206F6620636F64652062BC
:1032500061636B20746F20424C4B5F312E0D0A006E
:103260000000000000000000010203040607080936
:103270000000000001020304020304050607080918
:103280000A0B0C0D0E0F10100102030405060708AF
:08329000090A0B0C0D0E0F10D2
:04329800B901000870
:04329C009501000890
:0C32A00000127A00100000000100000085
:040000050800078167
:020000040800F2
:105000000000012039670108F1610108FF61010812
:10501000056201080B62010811620108000000002E
:1050200000000000000000000000000017620108FE
:105030002562010800000000336201084162010896
:10504000896701084D6201088967010889670108BD
:10505000896701088967010889670108896701086C
:10506000896701088967010889670108896701085C
:10507000896701088967010889670108896701084C
:10508000896701088967010889670108896701083C
:105090008967010889670108896701085962010861
:1050A000896701088967010889670108896701081C
:1050B000896701088967010889670108896701080C
:1050C00089670108896701088967010889670108FC
:1050D00089670108896701088967010889670108EC
:1050E0008967010869620108896701088967010801
:1050F00089670108896701088967010889670108CC
:1051000089670108000000000000000089670108AD
:105110007D620108896701088967010889670108BC
:10512000896701088967010889670108896701089B
:10513000896701088967010800000000000000007D
:105140008967010889670108896701080000000074
:10515000000000000000000000000000000000004F
:10516000896701088967010889670108896701085B
:10517000896701088967010889670108896701084B
:10518000896701088967010800000000000000002D
:045190008967010822
:1051A00010B5054C237833B9044B13B10448AFF361
:1051B00000800123237010BDD80B002000000000E8
:1051C0004CA4010808B5034B1BB103490348AFF3D6
:1051D000008008BD00000000DC0B00204CA401088A
:1051E00010F8012B11F8013B012A28BF9A42F7D091
:1051F000D01A7047034613F8012B002AFBD1181A66
:1052000001387047000000000000000000000000AE
:1052100001F0FF01102A2BDB10F0070F08D010F867
:10522000013B013A8B422DD010F0070F42B3F6D16B
:10523000F0B441EA012141EA014122F007047FF084
:1052400000070023F0E80256083C85EA010586EADB
:10525000010685FA47F5A3FA87F586FA47F6A5FA17
:1052600087F68EB9EED1F0BC01F0FF0102F0070223
:1052700032B110F8013B013A83EA010313B1F8D1CE
:105280000020704701387047002D06BF35460338AF
:10529000073815F0010F07D1013015F4807F02BFE8
:1052A000013015F4C03F0130F0BC0138704700BF39
:1052B00081F0004102E000BF83F0004330B54FEAC7
:1052C00041044FEA430594EA050F08BF90EA020F34
:1052D0001FBF54EA000C55EA020C7FEA645C7FEAC7
:1052E000655C00F0E2804FEA5454D4EB5555B8BFEA
:1052F0006D420CDD2C4480EA020281EA030382EA5B
:10530000000083EA010180EA020281EA0303362DEC
:1053100088BF30BD11F0004F4FEA01314FF4801CBF
:105320004CEA113102D0404261EB410113F0004FD1
:105330004FEA03334CEA133302D0524263EB430388
:1053400094EA050F00F0A780A4F10104D5F1200E26
:105350000DDB02FA0EFC22FA05F2801841F1000181
:1053600003FA0EF2801843FA05F359410EE0A5F155
:1053700020050EF1200E012A03FA0EFC28BF4CF086
:10538000020C43FA05F3C01851EBE37101F000453C
:1053900007D54FF0000EDCF1000C7EEB00006EEB49
:1053A0000101B1F5801F1BD3B1F5001F0CD34908D3
:1053B0005FEA30004FEA3C0C04F101044FEA44522A
:1053C00012F5800F80F09A80BCF1004F08BF5FEAB1
:1053D000500C50F1000041EB045141EA050130BD91
:1053E0005FEA4C0C404141EB0101013C28BFB1F5A3
:1053F000801FE9D291F0000F04BF01460020B1FAEE
:1054000081F308BF2033A3F10B03B3F120020CDAC0
:105410000C3208DD02F1140CC2F10C0201FA0CF09E
:1054200021FA02F10CE002F11402D8BFC2F1200C03
:1054300001FA02F120FA0CFCDCBF41EA0C019040B9
:10544000E41AA2BF01EB0451294330BD6FEA040402
:105450001F3C1CDA0C340EDC04F11404C4F12002ED
:1054600020FA04F001FA02F340EA030021FA04F3FF
:1054700045EA030130BDC4F10C04C4F1200220FA56
:1054800002F001FA04F340EA0300294630BD21FA94
:1054900004F0294630BD94F0000F83F4801306BF5A
:1054A00081F480110134013D4EE77FEA645C18BF4E
:1054B0007FEA655C29D094EA050F08BF90EA020FE5
:1054C00005D054EA000C04BF1946104630BD91EADD
:1054D000030F1EBF0021002030BD5FEA545C05D1E0
:1054E0004000494128BF41F0004130BD14F580041F
:1054F0003CBF01F5801130BD01F0004545F0FE4193
:1055000041F470014FF0000030BD7FEA645C1ABFC7
:10551000194610467FEA655C1CBF0B46024650EAFE
:10552000013406BF52EA033591EA030F41F400212A
:1055300030BD00BF90F0000F04BF0021704730B5B0
:105540004FF4806404F132044FF000054FF0000185
:1055500050E700BF90F0000F04BF0021704730B546
:105560004FF4806404F1320410F0004548BF40421B
:105570004FF000013EE700BF42004FEAE2014FEA70
:1055800031014FEA02701FBF12F07F4393F07F4F4B
:1055900081F06051704732F07F4208BF704793F04E
:1055A0007F4F04BF41F40021704730B54FF4607461
:1055B00001F0004521F000411CE700BF50EA010264
:1055C00008BF704730B54FF000050AE050EA01020D
:1055D00008BF704730B511F0004502D5404261EB7D
:1055E00041014FF4806404F132045FEA915C3FF4BE
:1055F000D8AE4FF003025FEADC0C18BF03325FEA5B
:10560000DC0C18BF033202EBDC02C2F1200300FA0B
:1056100003FC20FA02F001FA03FE40EA0E0021FA30
:1056200002F11444BDE600BF70B54FF0FF0C4CF41E
:10563000E06C1CEA11541DBF1CEA135594EA0C0FD0
:1056400095EA0C0F00F0DEF82C4481EA030621EA0B
:105650004C5123EA4C5350EA013518BF52EA033546
:1056600041F4801143F4801338D0A0FB02CE4FF0F8
:105670000005E1FB02E506F00042E0FB03E54FF028
:105680000006E1FB03569CF0000F18BF4EF0010E20
:10569000A4F1FF04B6F5007F64F5407404D25FEA1C
:1056A0004E0E6D4146EB060642EAC62141EA5551CF
:1056B0004FEAC52040EA5E504FEACE2EB4F1FD0C11
:1056C00088BFBCF5E06F1ED8BEF1004F08BF5FEA8F
:1056D000500E50F1000041EB045170BD06F0004641
:1056E00046EA010140EA020081EA0301B4EB5C04EE
:1056F000C2BFD4EB0C0541EA045170BD41F48011E6
:105700004FF0000E013C00F3AB8014F1360FDEBF0A
:10571000002001F0004170BDC4F10004203C35DAE6
:105720000C341BDC04F11404C4F1200500FA05F369
:1057300020FA04F001FA05F240EA020001F000420A
:1057400021F0004110EBD37021FA04F642EB060180
:105750005EEA430E08BF20EAD37070BDC4F10C04AA
:10576000C4F1200500FA04F320FA05F001FA04F26E
:1057700040EA020001F0004110EBD37041F100015A
:105780005EEA430E08BF20EAD37070BDC4F1200565
:1057900000FA05F24EEA020E20FA04F301FA05F2CD
:1057A00043EA020321FA04F001F0004121FA04F275
:1057B00020EA020000EBD3705EEA430E08BF20EA45
:1057C000D37070BD94F0000F0FD101F0004640007F
:1057D00041EB010111F4801F08BF013CF7D041EA01
:1057E000060195F0000F18BF704703F00046520005
:1057F00043EB030313F4801F08BF013DF7D043EAD6
:105800000603704794EA0C0F0CEA135518BF95EA8B
:105810000C0F0CD050EA410618BF52EA4306D1D112
:1058200081EA030101F000414FF0000070BD50EA31
:10583000410606BF1046194652EA430619D094EABB
:105840000C0F02D150EA013613D195EA0C0F05D1A5
:1058500052EA03361CBF104619460AD181EA0301F9
:1058600001F0004141F0FE4141F470014FF00000B1
:1058700070BD41F0FE4141F4780170BD70B54FF04C
:10588000FF0C4CF4E06C1CEA11541DBF1CEA1355CC
:1058900094EA0C0F95EA0C0F00F0A7F8A4EB0504AE
:1058A00081EA030E52EA03354FEA013100F08880A5
:1058B0004FEA03334FF0805545EA131343EA12636E
:1058C0004FEA022245EA111545EA10654FEA002623
:1058D0000EF000419D4208BF964244F1FD0404F5DC
:1058E000407402D25B084FEA3202B61A65EB030538
:1058F0005B084FEA32024FF480104FF4002CB6EBF5
:10590000020E75EB030E22BFB61A754640EA0C0074
:105910005B084FEA3202B6EB020E75EB030E22BFB4
:10592000B61A754640EA5C005B084FEA3202B6EBF5
:10593000020E75EB030E22BFB61A754640EA9C00B4
:105940005B084FEA3202B6EB020E75EB030E22BF84
:10595000B61A754640EADC0055EA060E18D04FEA42
:10596000051545EA16754FEA06164FEAC30343EAE2
:1059700052734FEAC2025FEA1C1CC0D111F4801FAF
:105980000BD141EA00014FF000004FF0004CB6E7A8
:1059900011F4801F04BF01430020B4F1FD0C88BF47
:1059A000BCF5E06F3FF6AFAEB5EB030C04BFB6EB52
:1059B000020C5FEA500C50F1000041EB045170BD45
:1059C0000EF0004E4EEA113114EB5C04C2BFD4EB72
:1059D0000C0541EA045170BD41F480114FF0000EF6
:1059E000013C90E645EA060E8DE60CEA135594EA72
:1059F0000C0F08BF95EA0C0F3FF43BAF94EA0C0F75
:105A00000AD150EA01347FF434AF95EA0C0F7FF4E9
:105A100025AF104619462CE795EA0C0F06D152EA3D
:105A200003353FF4FDAE1046194622E750EA410621
:105A300018BF52EA43067FF4C5AE50EA41047FF432
:105A40000DAF52EA43057FF4EBAE12E74FF0FF3C97
:105A500006E000BF4FF0010C02E000BF4FF0010C68
:105A60004DF804CD4FEA410C7FEA6C5C4FEA430CE1
:105A700018BF7FEA6C5C1BD001B050EA410C0CBF30
:105A800052EA430C91EA030F02BF90EA020F002092
:105A9000704710F1000F91EA030F58BF994208BFF9
:105AA00090422CBFD8176FEAE37040F001007047B6
:105AB0004FEA410C7FEA6C5C02D150EA013C07D10D
:105AC0004FEA430C7FEA6C5CD6D152EA033CD3D058
:105AD0005DF8040B704700BF8446104662468C4652
:105AE0001946634600E000BF01B5FFF7B7FF002885
:105AF00048BF10F1000F01BD4DF808EDFFF7F4FFAE
:105B00000CBF012000205DF808FB00BF4DF808ED38
:105B1000FFF7EAFF34BF012000205DF808FB00BF5B
:105B20004DF808EDFFF7E0FF94BF012000205DF87D
:105B300008FB00BF4DF808EDFFF7CEFF94BF012032
:105B400000205DF808FB00BF4DF808EDFFF7C4FF2B
:105B500034BF012000205DF808FB00BF4FEA41027E
:105B600012F5001215D211D56FF47873B3EB6252AF
:105B700012D94FEAC12343F0004343EA505311F0D6
:105B8000004F23FA02F018BF404270474FF0000068
:105B9000704750EA013005D111F0004008BF6FF0A6
:105BA000004070474FF00000704700BF4A0011D21C
:105BB00012F5001211D20DD56FF47873B3EB625267
:105BC0000ED44FEAC12343F0004343EA505323FA73
:105BD00002F070474FF00000704750EA013002D1E8
:105BE0004FF0FF3070474FF00000704738B500228B
:105BF000002304460D46FFF789FF28B920462946B1
:105C0000BDE8384000F00AB8204605F1004100F038
:105C100005F8404261EB410138BD00BFD0B50C4BE7
:105C2000002206460F46FFF7FFFCFFF7BFFF0446C2
:105C3000FFF780FC074B0022FFF7F6FC02460B46FD
:105C400030463946FFF738FBFFF7B0FF2146D0BD9D
:105C50000000F03D0000F04180B500AF084B1B682C
:105C6000074A43F010031360032002F09FF900205D
:105C700000F008F810F086FA0023184680BD00BF37
:105C80000020024080B582B000AF7860124B1A68E5
:105C9000124B1B7819464FF47A73B3FBF1F3B2FB46
:105CA000F3F3184602F0FEF90346002B01D001235E
:105CB0000EE07B680F2B0AD8002279684FF0FF3086
:105CC00002F094F9064A7B681360002300E0012388
:105CD00018460837BD4680BDFC090020040000209E
:105CE0000000002080B400AF064B1B781A46064B1C
:105CF0001B681344044A136000BFBD465DF8047B73
:105D0000704700BF04000020840C002080B400AF66
:105D1000034B1B681846BD465DF8047B704700BF07
:105D2000840C002080B584B000AF7860FFF7EEFFF0
:105D3000B8607B68FB60FB68B3F1FF3F05D00A4B9E
:105D40001B781A46FB681344FB6000BFFFF7DEFFB9
:105D50000246BB68D31AFA689A42F7D800BF00BF60
:105D60001037BD4680BD00BF0400002080B400AFE6
:105D7000054B1B68044A23F00203136000BFBD46B5
:105D80005DF8047B704700BF10E000E080B400AF16
:105D9000054B1B68044A43F00203136000BFBD4675
:105DA0005DF8047B704700BF10E000E080B59AB05A
:105DB00000AF7860002387F8673000233B6600233C
:105DC000BB607B68002B01D1012362E37B681B6809
:105DD000B3F1A04F12D07B681B689F4A93420DD04D
:105DE0007B681B689D4A934208D07B681B689C4A6D
:105DF000934203D0F9219B480FF0BAFF7B685B68A0
:105E0000002B12D07B685B68B3F5803F0DD07B68B8
:105E10005B68B3F5003F08D07B685B68B3F5403F33
:105E200003D0FA218F480FF0A3FF7B689B68002BFB
:105E30000FD07B689B68082B0BD07B689B68102B6E
:105E400007D07B689B68182B03D0FB2185480FF097
:105E50008FFF7B68DB68002B07D07B68DB68202B1B
:105E600003D0FC217F480FF083FF7B681B69002B68
:105E700007D07B681B69012B03D0FD2179480FF007
:105E800077FF7B685B7E002B07D07B685B7E012BF6
:105E900003D0FE2173480FF06BFF7B68DB6A002B99
:105EA00012D07B68DB6AB3F5806F0DD07B68DB6A4C
:105EB000B3F5006F08D07B68DB6AB3F5406F03D0A1
:105EC000FF2168480FF054FF7B689B6A002B00F0AD
:105ED0008C807B689B6A402B00F087807B689B6A84
:105EE000C02B00F082807B689B6AB3F5707F7CD00A
:105EF0007B689B6AB3F5A07F77D07B689B6AB3F51C
:105F0000507F72D07B689B6AB3F5C07F6DD07B6891
:105F10009B6AB3F5707F68D07B689B6A402B64D026
:105F20007B689B6A002B60D07B689B6AB3F5C07F5F
:105F30005BD07B689B6AB3F5507F56D07B689B6AC9
:105F4000C02B52D07B689B6AB3F5A07F4DD07B6895
:105F50009B6A802B49D07B689B6AB3F5107F44D045
:105F60007B689B6AB3F5207F3FD07B689B6AB3F563
:105F7000307F3AD07B689B6AB3F5807F35D07B68F1
:105F80009B6AB3F5407F30D07B689B6AB3F5E07FB6
:105F90002BD07B689B6AB3F5007F26D07B689B6A19
:105FA000B3F5607F21D07B689B6AB3F5507F1CD02E
:105FB0007B689B6AB3F5707F17D07B689B6AB3F5EB
:105FC0008A5F12D07B689B6AB3F5845F0DD07B68D3
:105FD0009B6AB3F5865F08D07B689B6A012B04D06F
:105FE0004FF480711F480FF0C3FE7B6893F8303088
:105FF000002B09D07B6893F83030012B04D040F29D
:10600000011118480FF0B4FE7B685B69042B08D0BF
:106010007B685B69082B04D04FF4817111480FF045
:10602000A7FE7B685B6B012B08D07B685B6B002B4A
:1060300004D040F203110B480FF09AFE7B681B7EE0
:10604000002B11D07B681B7E012B0DD04FF4827189
:1060500004480FF08DFE07E00001005000040050DE
:106060000005005068A401087B681B69002B2DD037
:106070007B68DB69002B03D07B68DB69102B04D9BC
:106080004FF48471A2480FF073FE7B6893F82030C0
:10609000002B09D07B6893F82030012B04D040F20C
:1060A00009119B480FF064FE7B6893F82030002BA9
:1060B0000CD07B685B6A002B03D07B685B6A082B83
:1060C00004D94FF4867192480FF052FE7B681B6C26
:1060D00003F01003002B76D17B681B6C002B52D190
:1060E0007B6800225A647B680022DA647B680022A5
:1060F0009A647B68002283F83C2078680DF0BCFE2F
:106100007B681B689B6803F08053002B3BD1786849
:1061100001F01AFD034687F867307B681B6C03F0BB
:106120001003002B2FD197F86730002B2BD17B6801
:106130001B6C23F4885323F0020343F002027B68B4
:106140001A647B681B689A687B681B6822F040525F
:106150009A607B681B689A687B681B6842F0805273
:106160009A606C4B1B686C4AA2FB03239A0C134683
:106170009B0013445B00BB6002E0BB68013BBB605B
:10618000BB68002BF9D17B681B689B6803F08053C8
:10619000002B07D07B681B689B6803F00053B3F1AA
:1061A000005F10D17B681B6C23F0120343F01002D8
:1061B0007B681A647B685B6C43F001027B685A64FD
:1061C000012387F867307B681B6C03F01003002BFA
:1061D00040F0528197F86730002B40F04D817B688A
:1061E0001B689B6803F00403002B40F045817B682B
:1061F0001B6C23F4817343F002027B681A647B6892
:106200001B68B3F1A04F04D07B681B68434A9342DC
:1062100001D1434B00E0434BFB657B681B68B3F146
:10622000A04F02D13D4BFB601AE07B681B683B4AE4
:10623000934203D14FF0A043FB6011E07B681B68E1
:10624000394A934202D1394BFB6009E07B681B68F5
:10625000364A934202D1344BFB6001E00023FB60DD
:106260007B681B689B6803F00303012B08D17B68E4
:106270001B681B6803F00103012B01D1012300E01F
:106280000023002B1CD1FB68002B10D0FB689B68FF
:1062900003F00303012B07D1FB681B6803F0010324
:1062A000012B01D1012300E00023002B08D1FB6D5D
:1062B0009B6823F440327B685B681A43FB6D9A60ED
:1062C0007B685B7E5B037A68526B012A02D04FF4D5
:1062D000805200E000221A437B68DB681A437B6827
:1062E0009B6813433A6E13433B667B6893F82030F8
:1062F000012B2BD17B685B7E002B19D17B685B6AFD
:10630000013B5A043B6E134343F480333B661DE06C
:1063100068A40108FC09002083DE1B430001005033
:10632000000300500007005000040050000500501A
:106330007B681B6C23F0220343F020027B681A6405
:106340007B685B6C43F001027B685A647B689B6AE4
:10635000012B46D07B681B68504A934204D07B686F
:106360001B684F4A934232D17B689B6AB3F5307FFA
:106370002AD07B689B6AB3F5807F22D07B689B6ABA
:10638000B3F5E07F1AD07B689B6AB3F58A5F12D0C1
:106390007B689B6AB3F5845F0AD07B689B6AB3F520
:1063A000865F02D07B689B6A15E04FF4C07312E0F1
:1063B0004FF4A0730FE04FF470730CE04FF4807350
:1063C00009E04FF4307306E04FF4E07303E07B68BC
:1063D0009B6A23F480537A68D26A13433A6E13435C
:1063E0003B667B681B689B6803F00C03002B14D191
:1063F0007B681B68DB687A68126823F4804323F0AB
:106400000203D3607B681B7E9A037B6893F830306D
:106410005B0013433A6E13433B667B681B68DA6884
:10642000204B13407A681268396E0B43D3607B6847
:106430001B69012B0CD17B681B681B6B23F00F01C0
:106440007B68DB695A1E7B681B680A431A6307E096
:106450007B681B681A6B7B681B6822F00F021A634B
:106460007B6800225A647B681B6C23F0030343F0B3
:1064700001027B681A640AE07B681B6C23F012033C
:1064800043F010027B681A64012387F8673097F89D
:10649000673018466837BD4680BD00BF0004005015
:1064A0000005005007C0F0FF80B598B000AF7860DD
:1064B000002387F85F307B68002B01D1012385E141
:1064C0007B681B68B3F1A04F13D07B681B68944AAC
:1064D00093420ED07B681B68924A934209D07B6836
:1064E0001B68914A934204D04FF44D718F480FF0CE
:1064F0003FFC7B681B6C43F002027B681A646C21D2
:10650000786801F081FB034687F85F3097F85F30C9
:10651000002B18D17B681B68DA687B681B6842F423
:106520000012DA60786801F00FFB034687F85F30ED
:1065300097F85F30002B03D17B6801221A6402E0D8
:10654000012387F85F3097F85F30002B40F03881E7
:106550007B681B685B687A68126823F4FF6323F02A
:10656000070353607B681B6840F2FF721A607B6808
:106570001B689A687B681B6822F0E0429A607B681F
:106580001B689A687B681B6842F000529A607B68BF
:106590001B68D9687B681A68654B0B40D3607B68C1
:1065A0001B6859697B681A68624B0B4053617B68B2
:1065B0001B689A697B681B6802F078429A617B6865
:1065C0001B681A6A7B681B6802F0F0221A627B68FB
:1065D0001B685A6A7B681B6802F0FF225A627B685C
:1065E0001B689A6A7B681B6802F0FF229A627B68CC
:1065F0001B68196B7B681A684F4B0B4013637B68F1
:106600001B68596B7B681A684C4B0B4053637B6863
:106610001B68996B7B681A68484B0B4093637B68D7
:106620001B68DB6B7A68126823F4FB6323F00703B3
:10663000D3637B681B68196E7B681A68404B0B40FC
:1066400013667B681B68596E7B681A683C4B0B406D
:1066500053667B681B68996E7B681A68384B0B40E1
:1066600093667B681B68D96E7B681A68344B0B4055
:10667000D3667B681B68D3F8A0107B681A68314B1F
:106680000B40C2F8A0307B681B68D3F8A4107B686D
:106690001A682C4B0B40C2F8A4307B681B68D3F8F7
:1066A000B0107B681A68274B0B40C2F8B0307B688B
:1066B0001B68D3F8B4207B681B6822F07F12C3F8F4
:1066C000B4207B681B68B3F1A04F04D07B681B68C3
:1066D000134A934201D11C4B00E01C4BBB657B6805
:1066E0001B68B3F1A04F02D10D4BBB6032E07B6859
:1066F0001B680B4A934203D14FF0A043BB6029E0D3
:106700007B681B68074A934202D1074BBB6021E0BC
:106710007B681B68044A93421AD1024BBB6019E0A4
:1067200000010050000400500005005068A401085A
:1067300004800080070000C0300882E0200882E06A
:1067400000F0FF030100F8FF0003005000070050B5
:106750000023BB607B681B689B6803F00303012B6D
:1067600008D17B681B681B6803F00103012B01D172
:10677000012300E00023002B19D1BB68002B10D0AF
:10678000BB689B6803F00303012B07D1BB681B6840
:1067900003F00103012B01D1012300E00023002BB2
:1067A00005D1BB6D9A680B4B1340BA6D9360786846
:1067B0000DF080FB7B6800225A647B6800221A641B
:1067C0007B68002283F83C2097F85F3018466037DA
:1067D000BD4680BDE0103CFE80B584B000AF78605F
:1067E0000023FB737B681B68B3F1A04F13D07B6859
:1067F0001B688D4A93420ED07B681B688B4A93427C
:1068000009D07B681B688A4A934204D040F2DF417A
:1068100088480FF0ADFA7B681B689B6803F004039F
:10682000002B40F0F9807B6893F83C30012B01D1BC
:106830000223F4E07B68012283F83C20786801F0B1
:1068400025F90346FB73FB7B002B40F0E0807B685F
:106850001B6C23F4706323F0010343F480727B68A4
:106860001A647B681B68B3F1A04F04D07B681B6877
:106870006D4A934206D1704B9B6803F01F03002BB7
:1068800010D005E06D4B9B6803F01F03002B09D06F
:106890007B681B68B3F1A04F04D07B681B68634A18
:1068A000934215D17B681B6C23F480127B681A64B9
:1068B0007B681B68DB6803F00073002B36D07B68B5
:1068C0001B6C23F4405343F480527B681A642DE020
:1068D0007B681B6C43F480127B681A647B681B68BE
:1068E000B3F1A04F04D07B681B684F4A93420AD192
:1068F0004FF0A043DB6803F00073002B14BF0123AB
:106900000023DBB208E0494BDB6803F00073002B87
:1069100014BF01230023DBB2002B07D07B681B6C64
:1069200023F4405343F480527B681A647B681B6CE9
:1069300003F48053B3F5805F06D17B685B6C23F072
:1069400006027B685A6402E07B6800225A647B6816
:10695000002283F83C207B681B681C221A607B683D
:106960001B68B3F1A04F04D07B681B682E4A93428A
:1069700006D1314B9B6803F01F03002B3ED005E08E
:106980002E4B9B6803F01F03002B37D07B681B68DE
:10699000B3F1A04F04D07B681B68234A934206D111
:1069A000254B9B6803F01F03052B27D005E0234BE5
:1069B0009B6803F01F03052B20D07B681B68B3F195
:1069C000A04F04D07B681B68174A934206D11A4B2C
:1069D0009B6803F01F03092B10D005E0174B9B6841
:1069E00003F01F03092B09D07B681B68B3F1A04F8C
:1069F00004D07B681B680D4A93420FD17B681B68EB
:106A00009A687B681B6842F004029A6006E07B6823
:106A1000002283F83C2001E00223FB73FB7B184635
:106A20001037BD4680BD00BF00010050000400507B
:106A30000005005068A40108000300500007005042
:106A400080B584B000AF78600023FB737B681B685F
:106A5000B3F1A04F13D07B681B68204A93420ED03D
:106A60007B681B681E4A934209D07B681B681D4ADD
:106A7000934204D040F2AD511B480FF079F97B6886
:106A800093F83C30012B01D1022323E07B680122E3
:106A900083F83C206C21786801F0B6F80346FB735C
:106AA000FB7B002B11D1786801F04EF80346FB7395
:106AB000FB7B002B09D17B681B6C23F4885323F0EC
:106AC000010343F001027B681A647B68002283F8AB
:106AD0003C20FB7B18461037BD4680BD00010050AE
:106AE000000400500005005068A4010880B586B07D
:106AF00000AF7860396000233B617B681B68B3F1AD
:106B0000A04F13D07B681B687E4A93420ED07B68EF
:106B10001B687D4A934209D07B681B687B4A93427D
:106B200004D040F219617A480FF022F97B685B6962
:106B3000082B02D108237B613AE07B681B68B3F124
:106B4000A04F04D07B681B686E4A934201D1714B01
:106B500000E0714BFB60FB689B6803F01F03002B98
:106B600012D17B681B68DB6803F00103012B1DD188
:106B70007B681B6C43F020027B681A647B680022F0
:106B800083F83C200123B8E0FB689B6803F4404392
:106B9000002B0BD07B681B6C43F020027B681A64CF
:106BA0007B68002283F83C200123A6E00C237B6154
:106BB0007B681B68B3F1A04F04D07B681B68514A07
:106BC000934206D1534B9B6803F01F03002B10D058
:106BD00005E0514B9B6803F01F03002B09D07B6835
:106BE0001B68B3F1A04F04D07B681B68464A9342F0
:106BF00004D17B681B68DB683B610FE07B681B6826
:106C0000B3F1A04F04D07B681B683E4A934202D187
:106C10004FF0A04300E03C4BDB683B61FFF776F8A8
:106C2000B8601AE03B68B3F1FF3F16D03B68002B19
:106C300007D0FFF76BF80246BB68D31A3A689A424E
:106C40000BD27B681B6C43F004027B681A647B6880
:106C5000002283F83C2003234FE07B681B681A68FE
:106C60007B691340002BDDD07B681B6C43F4007202
:106C70007B681A647B681B68DB6803F44063002B45
:106C800031D13B6903F40053002B2CD17B681B6886
:106C90001B6803F00803082B25D17B681B689B68E1
:106CA00003F00403002B12D17B681B6C23F4807269
:106CB0007B681A647B681B6C03F48053002B12D131
:106CC0007B681B6C43F001027B681A640BE07B68F5
:106CD0001B6C43F020027B681A647B685B6C43F09A
:106CE00001027B685A643B6903F48043002B03D1A3
:106CF0007B681B687A691A60002318461837BD46FE
:106D000080BD00BF0001005000040050000500508D
:106D100068A40108000300500007005080B582B04D
:106D200000AF78607B681B68B3F1A04F13D07B681D
:106D30001B680C4A93420ED07B681B680A4A934238
:106D400009D07B681B68094A934204D040F6F421BD
:106D500007480FF00DF87B681B681B6C1846083756
:106D6000BD4680BD000100500004005000050050E9
:106D700068A4010880B584B000AF78603960002352
:106D8000FB737B681B68B3F1A04F13D07B681B6853
:106D90003F4A93420ED07B681B683E4A934209D01B
:106DA0007B681B683C4A934204D040F6FA413B485A
:106DB0000EF0DEFF3B68002B07D03B68012B04D0B0
:106DC00040F6FB4135480EF0D3FF7B6893F83C302A
:106DD000012B01D1022357E07B68012283F83C207C
:106DE000786800F0B1FE0346FB73FB7B002B46D1B5
:106DF0007B6801221A647B681B689A687B681B6841
:106E000022F080429A603B68012B07D17B681B68A7
:106E10009A687B681B6842F080429A607B681B68B6
:106E20009A687B681B6842F000429A60FEF76EFF2A
:106E3000B86014E0FEF76AFF0246BB68D31A0A2B5B
:106E40000DD97B681B6C23F0120343F010027B68A2
:106E50001A647B68002283F83C20012314E07B68DD
:106E60001B689B6803F00043B3F1004FE2D07B68DE
:106E70001B6C23F0030343F001027B681A647B68F8
:106E8000002283F83C20FB7B18461037BD4680BDAE
:106E900000010050000400500005005068A40108E3
:106EA00080B59AB000AF78603960002387F867300A
:106EB0000023BB607B681B68B3F1A04F13D07B68D5
:106EC0001B686B4A93420ED07B681B68694A9342E9
:106ED00009D07B681B68684A934204D041F2815113
:106EE00066480EF045FF3B685B68012B40D03B686D
:106EF0005B68022B3CD03B685B68032B38D03B6857
:106F00005B68042B34D03B685B68052B30D03B6852
:106F10005B68062B2CD03B685B68072B28D03B684E
:106F20005B68082B24D03B685B68092B20D03B684A
:106F30005B680A2B1CD03B685B680B2B18D03B6846
:106F40005B680C2B14D03B685B680D2B10D03B6842
:106F50005B680E2B0CD03B685B680F2B08D03B683E
:106F60005B68102B04D041F2825144480EF000FFC0
:106F70003B689B68002B20D03B689B68012B1CD092
:106F80003B689B68022B18D03B689B68032B14D08E
:106F90003B689B68042B10D03B689B68052B0CD08A
:106FA0003B689B68062B08D03B689B68072B04D086
:106FB00041F2835131480EF0DBFE3B68DB68002B69
:106FC00008D03B68DB68012B04D041F284512B4888
:106FD0000EF0CEFE3B681B69002B14D03B681B698A
:106FE000012B10D03B681B69022B0CD03B681B693E
:106FF000032B08D03B681B69042B04D041F2855158
:107000001E480EF0B5FE7B681B68DB6803F01803B2
:10701000002B04D13B685B69B3F5805F30D37B689C
:107020001B68DB6803F01803082B04D13B685B691D
:10703000B3F5806F24D37B681B68DB6803F018030B
:10704000102B03D13B685B69FF2B19D97B681B6848
:10705000DB6803F01803182B03D13B685B693F2BF7
:107060000ED941F2865105480EF082FE08E000BFBD
:1070700000010050000400500005005068A4010801
:107080003B68DB68012B63D03B681B68012B00F079
:107090009C803B681B68022B00F097803B681B6854
:1070A000032B00F092803B681B68042B00F08D805E
:1070B0003B681B68052B00F088803B681B68062B2B
:1070C00000F083803B681B68072B7ED03B681B6801
:1070D000082B7AD03B681B68092B76D03B681B686D
:1070E0000A2B72D03B681B680B2B6ED03B681B6869
:1070F0000C2B6AD03B681B680D2B66D03B681B6865
:107100000E2B62D03B681B680F2B5ED03B681B6860
:10711000102B5AD03B681B68112B56D03B681B685C
:10712000122B52D03B681B680F2B4ED03B681B685C
:10713000112B4AD03B681B68112B46D03B681B685B
:10714000112B42D041F28E51A4480EF011FE3CE0CA
:107150003B681B68012B38D03B681B68022B34D07E
:107160003B681B68032B30D03B681B68042B2CD07A
:107170003B681B68052B28D03B681B68062B24D076
:107180003B681B68072B20D03B681B68082B1CD072
:107190003B681B68092B18D03B681B680A2B14D06E
:1071A0003B681B680B2B10D03B681B680C2B0CD06A
:1071B0003B681B680D2B08D03B681B680E2B04D066
:1071C00041F2925185480EF0D3FD7B6893F83C3034
:1071D000012B01D10223D2E27B68012283F83C20FB
:1071E0007B681B689B6803F00403002B40F0B682A9
:1071F0003B685B68042B1CD87B681B68196B3B6879
:107200005A6813465B0013445B001A461F239340E1
:10721000DB4319403B6818683B685A6813465B00BB
:1072200013445B0000FA03F27B681B680A431A638D
:1072300063E03B685B68092B1ED87B681B68596B51
:107240003B685A6813465B0013445B001E3B1F22D9
:1072500002FA03F3DB4319403B6818683B685A683D
:1072600013465B0013445B001E3B00FA03F27B688D
:107270001B680A435A6340E03B685B680E2B1ED8CC
:107280007B681B68996B3B685A6813465B00134424
:107290005B003C3B1F2202FA03F3DB4319403B68CF
:1072A00018683B685A6813465B0013445B003C3B1C
:1072B00000FA03F27B681B680A439A631DE07B684F
:1072C0001B68D96B3B685A6813465B0013445B002C
:1072D0005A3B1F2202FA03F3DB4319403B6818684C
:1072E0003B685A6813465B0013445B005A3B00FA44
:1072F00003F27B681B680A43DA637B681B689B6840
:1073000003F00C03002B40F0E9803B681B68092B5D
:107310001CD97B681B6899693B681A6813465B0037
:1073200013441E3B072202FA03F3DB4319403B6878
:1073300098683B681A6813465B0013441E3B00FACA
:1073400003F27B681B680A439A6119E07B681B683B
:1073500059693B681A6813465B001344072202FA16
:1073600003F3DB4319403B6898683B681A6813468F
:107370005B00134400FA03F27B681B680A435A61FE
:107380003B685A697B681B68DB68DB0803F0030312
:107390005B0002FA03F33B663B681B69013B032B6E
:1073A00053D801A252F823F0B9730008E57300081E
:1073B00007740008297400087B681B681A6E084B64
:1073C00013403A68126891063A6E0A431A437B6882
:1073D0001B6842F000421A6683E000BF68A40108FF
:1073E00000F0FF837B681B685A6E9E4B13403A681F
:1073F000126891063A6E0A431A437B681B6842F092
:1074000000425A666DE07B681B689A6E954B13408C
:107410003A68126891063A6E0A431A437B681B6801
:1074200042F000429A665CE07B681B68DA6E8D4B26
:1074300013403A68126891063A6E0A431A437B6811
:107440001B6842F00042DA664BE07B681B681B6EEB
:1074500003F0F8423B681B689B069A4207D17B68A1
:107460001B681A6E7B681B6822F000421A667B68F4
:107470001B685B6E03F0F8423B681B689B069A42F0
:1074800007D17B681B685A6E7B681B6822F000423C
:107490005A667B681B689B6E03F0F8423B681B686A
:1074A0009B069A4207D17B681B689A6E7B681B68B3
:1074B00022F000429A667B681B68DB6E03F0F8429C
:1074C0003B681B689B069A420AD17B681B68DA6E90
:1074D0007B681B6822F00042DA6601E000BF00E032
:1074E00000BF7B681B689B6803F00303012B08D176
:1074F0007B681B681B6803F00103012B01D101238A
:1075000000E00023002B40F034813B68DB68012B56
:107510000FD07B681B68D3F8B0103B681B68012252
:1075200002FA03F3DA437B681B680A40C3F8B02011
:1075300049E07B681B68D3F8B0103B681B680122E8
:107540009A407B681B680A43C3F8B0203B681B68FD
:10755000092B1CD97B681B6899693B681A6813461C
:107560005B0013441B3B072202FA03F3DB43194081
:107570003B6898683B681A6813465B0013441B3BE2
:1075800000FA03F27B681B680A439A611BE07B6880
:107590001B6859693B681B685A1C13465B001344FF
:1075A000072202FA03F3DB4319403B6898683B6803
:1075B0001B685A1C13465B00134400FA03F27B68F5
:1075C0001B680A435A617B681B68B3F1A04F04D063
:1075D0007B681B68244A934201D1244B00E0244B72
:1075E000FB653B681B68102B05D1FB6D9B6803F4A2
:1075F0000003002B15D03B681B68112B05D1FB6DD8
:107600009B6803F08073002B0BD03B681B68122B28
:1076100040F0AF80FB6D9B6803F48003002B40F0CB
:10762000A8807B681B68B3F1A04F02D10E4BFB60B2
:1076300026E07B681B680C4A934203D14FF0A043BD
:10764000FB601DE07B681B680A4A934202D10A4B2B
:10765000FB6015E07B681B68074A93420ED1054B1F
:10766000FB600DE000F0FF830001005000030050BC
:107670000007005000040050000500500023FB608C
:107680007B681B689B6803F00303012B08D17B68B0
:107690001B681B6803F00103012B01D1012300E0EB
:1076A0000023002B50D1FB68002B10D0FB689B6897
:1076B00003F00303012B07D1FB681B6803F00103F0
:1076C000012B01D1012300E00023002B3CD13B68BA
:1076D0001B68102B1DD17B681B68B3F1A04F18D11C
:1076E000FB6D9B6843F40002FB6D9A60264B1B68A0
:1076F000264AA2FB03239A0C13469B0013445B000B
:10770000BB6002E0BB68013BBB60BB68002BF9D1EA
:107710002EE03B681B68112B0BD17B681B68B3F113
:10772000A04F06D1FB6D9B6843F08072FB6D9A60A1
:107730001EE03B681B68122B1AD1FB6D9B6843F45B
:107740008002FB6D9A6013E07B681B6C43F02002A3
:107750007B681A64012387F867300AE07B681B6C3A
:1077600043F020027B681A64012387F8673000E049
:1077700000BF7B68002283F83C2097F867301846EA
:107780006837BD4680BD00BFFC09002083DE1B4377
:1077900080B598B000AF78603960002387F85F301B
:1077A0007B681B68B3F1A04F09D07B681B68A04AB7
:1077B000934204D041F65E319E480EF0D9FA3B6800
:1077C0001B68002B20D03B681B68012B1CD03B683A
:1077D0001B68022B18D03B681B68032B14D03B6836
:1077E0001B68052B10D03B681B68062B0CD03B6830
:1077F0001B68072B08D03B681B68092B04D041F697
:107800005F318C480EF0B4FA3B681B68002B52D0F5
:107810003B685B68002B0ED03B685B68B3F5004F9C
