:020000040800F2
:20000000000001208107000821060008270600082D06000833060008390600080000000008
:200020000000000000000000000000003F0600084D060008000000005B0600086906000838
:20004000D1070008D1070008D1070008D1070008D1070008D1070008D1070008D1070008A0
:20006000D1070008D1070008D1070008D1070008D1070008D1070008D1070008D107000880
:20008000D1070008D1070008D1070008D1070008D1070008D1070008D1070008D107000860
:2000A000D1070008D1070008D1070008D1070008D1070008D1070008D1070008D107000840
:2000C000D1070008D1070008D1070008D1070008D1070008D1070008D1070008D107000820
:2000E000D1070008D1070008D1070008D1070008D1070008D1070008D1070008D107000800
:20010000D10700080000000000000000D1070008D1070008D1070008D1070008D10700089F
:20012000D1070008D1070008D1070008D1070008D1070008D107000800000000000000007F
:20014000D1070008D1070008D10700080000000000000000000000000000000000000000FF
:20016000D1070008D1070008D1070008D1070008D1070008D1070008D1070008D10700087F
:20018000D1070008D10700080000000000000000D107000810B5054C237833B9044B13B10F
:2001A0000448AFF300800123237010BD1000002000000000A831000808B5034B1BB1034919
:2001C0000348AFF3008008BD0000000014000020A831000880B485B000AF78607B6803F111
:2001E000007303F5FF339B001B68FB60FB6818461437BD465DF8047B7047000080B584B0E6
:2002000000AF78600023FB8102E0FB890133FB81FB897A6813441B78002BF6D1FA89642356
:200220007968034802F07AFB00BF1037BD4680BD3400002080B58AB000AF07F11403002242
:200240001A605A609A60DA601A613A4B5B69394A43F400235361374B5B6903F400233B61E5
:200260003B69344B5B69334A43F480035361314B5B6903F48003FB60FB682E4B5B692D4A80
:2002800043F4003353612B4B5B6903F40033BB60BB68284B5B69274A43F480235361254BF8
:2002A0005B6903F480237B607B68224B5B69214A43F4801353611F4B5B6903F480133B60B5
:2002C0003B6843F6FF737B610323BB610023FB6107F114031946184800F0C4FD49F6FF1363
:2002E0007B610323BB610023FB6107F1140319464FF0904000F0B6FD4FF6FF737B61032388
:20030000BB610023FB6107F1140319460B4800F0A9FD04237B610323BB610023FB6107F12F
:2003200014031946064800F09DFD00BF2837BD4680BD00BF00100240000800480004004864
:20034000000C004880B586B000AF02237B600123BB600123FB6003233B613B1D19460348AD
:2003600000F080FD00BF1837BD4680BD0008004880B400AFBFF34F8F00BF064BDB6803F4B5
:20038000E0620449044B1343CB60BFF34F8F00BF00BFFDE700ED00E00400FA0580B584B0D3
:2003A00000AF00F017FA00F059F8FFF743FF00F073F90020FFF70EFFB860BB68102B1FD12F
:2003C0001E48FFF71BFF0223FB6000F099F80346FB71FB68013BFB60FB68002B02D0FB7923
:2003E000002BF2D0FB68002B0AD1FFF7ABFF0221134800F0C1FE4FF4FA7000F051FAF6E715
:20040000104B1A68104B1340B3F1005F15D10F48FFF7F4FE0E4B1B680E4A13600D4B1B68A7
:200420001A460D4B1A60074B1B683B603B6883F3088800BF084B1B689847FEE7C03100081F
:2004400000080048005000080000FE2FDC310008045000082C0000203000002080B5A6B02F
:2004600000AF07F1700328220021184602F094FE07F15C0300221A605A609A60DA601A61B9
:200480003B1D58220021184602F086FE02233B670123FB671023C7F880300023C7F888300C
:2004A00007F17003184600F081FE0346002B01D000F08DF80F23FB6500233B6600237B66F0
:2004C0000023BB660023FB6607F15C030021184601F082FD0346002B01D000F078F8012345
:2004E0007B600023FB603B1D184601F0ABFF0346002B01D000F06BF800BF9837BD4680BDEC
:2005000080B584B000AF1D4BFB601D4B3B601D4BBB600123FB711C48FFF770FE72B600BF3B
:2005200000F038FB3968F86800F034F819E0BB681B681A464FF00003F968022000F0BAFA13
:20054000034603F00103012B05D10023FB710F48FFF754FE09E0BB680433BB60FB68043333
:20056000FB60BB680A4A9342E1D300F039FB62B600BFFB7918461037BD4680BD0050000874
:200580000080030800880308083200082432000800B8060880B586B000AF78603960002329
:2005A0007B610023BB607B68FB603A687B68D31ADB0A3B6107F1140207F10803114618462A
:2005C00000F0ACFB7B6918461837BD4680BD80B500AFFFF7CDFE000080B483B000AF0F4B9E
:2005E0009B690E4A43F0010393610C4B9B6903F001037B607B68094BDB69084A43F0805374
:20060000D361064BDB6903F080533B603B6800BF0C37BD465DF8047B704700BF001002406C
:2006200080B400AFFEE780B400AFFEE780B400AFFEE780B400AFFEE780B400AFFEE780B49E
:2006400000AF00BFBD465DF8047B704780B400AF00BFBD465DF8047B704780B400AF00BFCC
:20066000BD465DF8047B704780B500AF00F0F8F800BF80BD80B400AF064BD3F88830054A26
:2006800043F47003C2F8883000BFBD465DF8047B704700BF00ED00E080B500AF144B154AC3
:2006A0001A60134B4FF4E1325A60114B00229A600F4B0022DA600E4B00221A610C4B0C22A9
:2006C0005A610B4B00229A61094B0022DA61084B00221A62064B00225A62054802F0D0F814
:2006E0000346002B01D0FFF772FF00BF80BD00BF340000200038014080B58AB000AF7860D0
:2007000007F1140300221A605A609A60DA601A617B681B68184A934229D1184B9B69174A66
:2007200043F480439361154B9B6903F480433B613B69124B5B69114A43F4003353610F4B79
:200740005B6903F40033FB60FB684FF4C0637B610223BB610023FB6103233B6207237B6221
:2007600007F1140319464FF0904000F07BFB00BF2837BD4680BD00BF0038014000100240AE
:20078000DFF834D00D480E490E4A002302E0D458C4500433C4188C42F9D30B4A0B4C0023B9
:2007A00001E013600432A242FBD3FFF763FF02F0CFFCFFF7F3FDFEE70000012000000020DC
:2007C0000C000020A032000810000020E0000020FEE7000080B500AF084B1B68074A43F0C0
:2007E00010031360032000F031F9002000F008F8FFF7F2FE0023184680BD00BF0020024061
:020000040800F2
:2008000080B582B000AF7860124B1A68124B1B7819464FF47A73B3FBF1F3B2FBF3F3184609
:2008200000F03BF90346002B01D001230EE07B680F2B0AD8002279684FF0FF3000F011F9D3
:20084000064A7B681360002300E0012318460837BD4680BD00000020080000200400002082
:2008600080B400AF064B1B781A46064B1B681344044A136000BFBD465DF8047B704700BF59
:2008800008000020B800002080B400AF034B1B681846BD465DF8047B704700BFB800002021
:2008A00080B584B000AF7860FFF7EEFFB8607B68FB60FB68B3F1FF3F05D00A4B1B781A46AD
:2008C000FB681344FB6000BFFFF7DEFF0246BB68D31AFA689A42F7D800BF00BF1037BD4644
:2008E00080BD00BF0800002080B485B000AF78607B6803F00703FB600C4BDB68BB60BA68D2
:200900004FF6FF031340BB60FB681A02BB68134343F0BF6343F40033BB60044ABB68D360AC
:2009200000BF1437BD465DF8047B704700ED00E080B400AF044BDB681B0A03F0070318465D
:20094000BD465DF8047B704700ED00E080B483B000AF03463960FB7197F90730002B0ADB01
:200960003B68DAB20C4997F907301201D2B20B4483F800230AE03B68DAB20849FB7903F0D7
:200980000F03043B1201D2B20B441A7600BF0C37BD465DF8047B704700E100E000ED00E072
:2009A00080B489B000AFF860B9607A60FB6803F00703FB61FB69C3F10703042B28BF0423B5
:2009C000BB61FB690433062B02D9FB69033B00E000237B614FF0FF32BB6902FA03F3DA4330
:2009E000BB681A407B699A404FF0FF317B6901FA03F3D9437B680B40134318462437BD461C
:200A00005DF8047B7047000080B582B000AF78607B68013BB3F1807F01D301230FE00A4A60
:200A20007B68013B53600F214FF0FF30FFF78EFF054B00229A60044B07221A6000231846E4
:200A40000837BD4680BD00BF10E000E080B582B000AF78607868FFF747FF00BF0837BD467D
:200A600080BD80B586B000AF0346B9607A60FB7300237B61FFF75CFF78617A68B968786968
:200A8000FFF78EFF024697F90F3011461846FFF75DFF00BF1837BD4680BD80B582B000AF51
:200AA00078607868FFF7B0FF034618460837BD4680BD0000F0B587B000AFF860B960C7E907
:200AC00000230123FB750023BB7500237B752F4B1B7E012B01D1022354E02C4B01221A7665
:200AE0004CF2503000F0A8F80346FB75FB7D002B44D1FB68012B02D101237B7507E0FB6877
:200B0000022B02D102237B7501E004237B750023BB752DE0BB7D5A00BB6802EB030CBB7D7F
:200B20001901D7E90023C1F12006A1F1200022FA01F403FA06F6344323FA00F0044323FA3C
:200B400001F5A3B21946604600F05AF84CF2503000F072F80346FB750D4B1B690C4A23F0ED
:200B600001031361FB7D002B07D1BB7D0133BB75BA7D7B7D9A42CDD300E000BF034B00222C
:200B80001A76FB7D18461C37BD46F0BDC00000200020024080B483B000AF0023FB710D4BAD
:200BA0001B6903F08003002B0DD00A4B0A4A5A60084B0A4A5A60074B1B6903F08003002BF8
:200BC00001D00123FB71FB7918460C37BD465DF8047B70470020024023016745AB89EFCDEF
:200BE00080B400AF054B1B69044A43F08003136100231846BD465DF8047B70470020024055
:200C000080B483B000AF78600B467B80084B0022DA61084B1B69074A43F0010313617B6834
:200C20007A881A8000BF0C37BD465DF8047B7047C00000200020024080B584B000AF786056
:200C4000FFF722FEF86010E07B68B3F1FF3F0CD07B68002B07D0FFF717FE0246FB68D31A0D
:200C60007A689A4201D203231FE0124BDB6803F00103012BE8D00F4BDB6803F02003202B45
:200C800002D10C4B2022DA600A4BDB6803F01003102B05D0074BDB6803F00403042B03D16E
:200CA00000F00AF8012300E0002318461037BD4680BD00BF0020024080B483B000AF0023DC
:200CC0007B60144BDB6803F01003102B09D1124BDB6943F00203104AD3617B6843F01003EC
:200CE0007B600C4BDB6803F00403042B09D10A4BDB6943F00103084AD3617B6843F0040309
:200D00007B60044A7B68D36000BF0C37BD465DF8047B704700200240C000002080B584B059
:200D200000AF786039600123FB730023BB602E4B1B7E012B01D1022352E02B4B01221A7633
:200D40007B681B68012B15D14CF25030FFF774FF0346002B40D100F04BF84CF25030FFF788
:200D60006BFF0346FB73214B1B69204A23F00403136131E04CF25030FFF75EFF0346002BD4
:200D80002AD13B684FF0FF321A607B685B68BB6019E0B86800F046F84CF25030FFF74CFFC4
:200DA0000346FB73114B1B69104A23F002031361FB7B002B03D03B68BA681A600CE0BB68F4
:200DC00003F50063BB607B689B68DA027B685B681344BA689A42DCD3034B00221A76FB7BBB
:200DE00018461037BD4680BDC00000200020024080B400AF094B0022DA61094B1B69084A0E
:200E000043F004031361064B1B69054A43F04003136100BFBD465DF8047B7047C0000020E9
:200E20000020024080B483B000AF78600B4B0022DA610B4B1B690A4A43F002031361084A83
:200E40007B685361064B1B69054A43F04003136100BF0C37BD465DF8047B7047C00000207D
:200E60000020024080B487B000AF7860396000237B6160E13B681A6801217B6901FA03F329
:200E80001340FB60FB68002B00F052813B685B6803F00303012B05D03B685B6803F0030394
:200EA000022B30D17B689B683B617B695B00032202FA03F3DB433A6913403B613B68DA6897
:200EC0007B695B0002FA03F33A6913433B617B683A699A607B685B683B6101227B6902FA87
:200EE00003F3DB433A6913403B613B685B681B0903F001027B6902FA03F33A6913433B6161
:200F00007B683A695A603B685B6803F00303032B17D07B68DB683B617B695B00032202FAFB
:200F200003F3DB433A6913403B613B689A687B695B0002FA03F33A6913433B617B683A691A
:200F4000DA603B685B6803F00303022B23D17B69DA087B68083253F822303B617B6903F0E4
:200F600007039B000F2202FA03F3DB433A6913403B613B681A697B6903F007039B0002FA5B
:200F800003F33A6913433B617B69DA087B680832396943F822107B681B683B617B695B0093
:200FA000032202FA03F3DB433A6913403B613B685B6803F003027B695B0002FA03F33A6938
:200FC00013433B617B683A691A603B685B6803F44033002B00F0AC805E4B9B695D4A43F081
:200FE000010393615B4B9B6903F00103BB60BB68594A7B699B08023352F823303B617B699E
:020000040800F2
:2010000003F003039B000F2202FA03F3DB433A6913403B617B68B3F1904F25D07B684F4A92
:2010200093421FD07B684E4A934219D07B684D4A934213D07B684C4A93420DD07B684B4ADE
:20104000934207D07B684A4A934201D106230CE007230AE0052308E0042306E0032304E076
:20106000022302E0012300E000237A6902F00302920093403A6913433B6137497B699B0867
:2010800002333A6941F823203A4B1B683B61FB68DB433A6913403B613B685B6803F4803335
:2010A000002B03D03A69FB6813433B61314A3B691360304B5B683B61FB68DB433A69134057
:2010C0003B613B685B6803F40033002B03D03A69FB6813433B61274A3B695360254B9B68B3
:2010E0003B61FB68DB433A6913403B613B685B6803F48013002B03D03A69FB6813433B615B
:201100001C4A3B6993601B4BDB683B61FB68DB433A6913403B613B685B6803F40013002BDF
:2011200003D03A69FB6813433B61124A3B69D3607B6901337B613B681A687B6922FA03F3A2
:20114000002B7FF497AE00BF00BF1C37BD465DF8047B70470010024000000140000400486E
:2011600000080048000C00480010004800140048001800480004014080B485B000AF786082
:201180000B467B807B685B69FB607A88FB6813401A04FB68D9437B880B401A437B689A6123
:2011A00000BF1437BD465DF8047B704780B5ADF5027D00AF3B1D18603B1D1B68002B02D1E9
:2011C000012300F001BF3B1D1B681B6803F00103002B00F06081AE4B5B6803F00C03042BFD
:2011E0000CD0AB4B5B6803F00C03082B59D1A84B5B6803F4C033B3F5803F52D14FF400335B
:20120000C7F8F431D7F8F43193FAA3F3C7F8F031D7F8F031B3FA83F3DBB25B09DBB243F02F
:201220000103DBB2012B02D1994B1B6815E04FF40033C7F8EC31D7F8EC3193FAA3F3C7F8A2
:20124000E8314FF40033C7F8E431D7F8E43193FAA3F3C7F8E0318E4B5B6A4FF40032C7F882
:20126000DC21D7F8DC2192FAA2F2C7F8D821D7F8D821B2FA82F2D2B242F02002D2B202F097
:201280001F02012101FA02F21340002B00F002813B1D1B685B68002B40F0FC80012300F0A2
:2012A00093BE3B1D1B685B68B3F5803F06D1784B1B68774A43F48033136030E03B1D1B68B2
:2012C0005B68002B0CD1724B1B68714A23F4803313606F4B1B686E4A23F4802313601EE0EB
:2012E0003B1D1B685B68B3F5A02F0CD1684B1B68674A43F480231360654B1B68644A43F4B0
:20130000803313600BE0624B1B68614A23F4803313605F4B1B685E4A23F4802313603B1D4A
:201320001B685B68002B59D0FFF7AEFAC7F800020AE0FFF7A9FA0246D7F80032D31A642B6C
:2013400002D9032300F040BE4FF40033C7F8D431D7F8D43193FAA3F3C7F8D031D7F8D031DD
:20136000B3FA83F3DBB25B09DBB243F00103DBB2012B02D1464B1B6815E04FF40033C7F8CB
:20138000CC31D7F8CC3193FAA3F3C7F8C8314FF40033C7F8C431D7F8C43193FAA3F3C7F8D9
:2013A000C0313B4B5B6A4FF40032C7F8BC21D7F8BC2192FAA2F2C7F8B821D7F8B821B2FA28
:2013C00082F2D2B242F02002D2B202F01F02012101FA02F21340002BABD05CE0FFF754FAA0
:2013E000C7F800020AE0FFF74FFA0246D7F80032D31A642B02D9032300F0E6BD4FF4003334
:20140000C7F8B431D7F8B43193FAA3F3C7F8B031D7F8B031B3FA83F3DBB25B09DBB243F02D
:201420000103DBB2012B02D1194B1B6815E04FF40033C7F8AC31D7F8AC3193FAA3F3C7F8A0
:20144000A8314FF40033C7F8A431D7F8A43193FAA3F3C7F8A0310E4B5B6A4FF40032C7F800
:201460009C21D7F89C2192FAA2F2C7F89821D7F89821B2FA82F2D2B242F02002D2B202F095
:201480001F02012101FA02F21340002BABD102E00010024000BF3B1D1B681B6803F00203D7
:2014A000002B00F07081D04B5B6803F00C03002B0CD0CD4B5B6803F00C03082B6DD1CA4BD6
:2014C0005B6803F4C033B3F5004F66D10223C7F89431D7F8943193FAA3F3C7F89031D7F882
:2014E0009031B3FA83F3DBB25B09DBB243F00103DBB2012B02D1BC4B1B6813E00223C7F866
:201500008C31D7F88C3193FAA3F3C7F888310223C7F88431D7F8843193FAA3F3C7F8803137
:20152000B14B5B6A0222C7F87C21D7F87C2192FAA2F2C7F87821D7F87821B2FA82F2D2B27A
:2015400042F02002D2B202F01F02012101FA02F21340002B07D03B1D1B68DB68012B02D01E
:20156000012300F031BDA04B1B6823F0F8023B1D1B681B69F821C7F87411D7F8741191FA53
:20158000A1F1C7F87011D7F87011B1FA81F1C9B28B40954913430B60F5E03B1D1B68DB6834
:2015A000002B00F085800123C7F86C31D7F86C3193FAA3F3C7F86831D7F86831B3FA83F319
:2015C000DBB203F1845303F584139B001A4601231360FFF759F9C7F800020AE0FFF754F95C
:2015E0000246D7F80032D31A022B02D9032300F0EBBC0223C7F86431D7F8643193FAA3F3F0
:20160000C7F86031D7F86031B3FA83F3DBB25B09DBB243F00103DBB2012B02D1724B1B6876
:2016200013E00223C7F85C31D7F85C3193FAA3F3C7F858310223C7F85431D7F8543193FA35
:20164000A3F3C7F85031684B5B6A0222C7F84C21D7F84C2192FAA2F2C7F84821D7F8482130
:20166000B2FA82F2D2B242F02002D2B202F01F02012101FA02F21340002BAFD05A4B1B68A5
:2016800023F0F8023B1D1B681B69F821C7F84411D7F8441191FAA1F1C7F84011D7F8401140
:2016A000B1FA81F1C9B28B404F4913430B606AE00123C7F83C31D7F83C3193FAA3F3C7F8B6
:2016C0003831D7F83831B3FA83F3DBB203F1845303F584139B001A4600231360FFF7D4F80C
:2016E000C7F800020AE0FFF7CFF80246D7F80032D31A022B02D9032300F066BC0223C7F828
:201700003431D7F8343193FAA3F3C7F83031D7F83031B3FA83F3DBB25B09DBB243F00103E5
:20172000DBB2012B02D1304B1B6813E00223C7F82C31D7F82C3193FAA3F3C7F8283102235F
:20174000C7F82431D7F8243193FAA3F3C7F82031254B5B6A0222C7F81C21D7F81C2192FA31
:20176000A2F2C7F81821D7F81821B2FA82F2D2B242F02002D2B202F01F02012101FA02F235
:201780001340002BAFD13B1D1B681B6803F00803002B00F0DA803B1D1B685B69002B69D077
:2017A0000123C7F81431D7F8143193FAA3F3C7F81031D7F81031B3FA83F3DBB21A460B4B54
:2017C00013449B001A4601231360FFF75DF8C7F800020DE0FFF758F80246D7F80032D31AAB
:2017E000022B05D90323EFE300100240208190100223C7F80C31D7F80C3193FAA3F207F508
:020000040800F2
:2018000084731A6007F5827302221A6007F582731B6893FAA3F207F580731A6007F1FC03D2
:2018200002221A6007F1FC031B6893FAA3F207F1F8031A60A44B5A6A07F1F40302211960C3
:2018400007F1F4031B6893FAA3F107F1F003196007F1F0031B68B3FA83F3DBB243F06003DD
:20186000DBB203F01F03012101FA03F31340002BB0D06AE007F1EC0301221A6007F1EC0300
:201880001B6893FAA3F207F1E8031A6007F1E8031B68B3FA83F3DBB21A468C4B13449B0007
:2018A0001A4600231360FEF7EFFFC7F8000209E0FEF7EAFF0246D7F80032D31A022B01D98A
:2018C000032381E307F1E40302221A6007F1E4031B6893FAA3F207F1E0031A6007F1DC0351
:2018E00002221A6007F1DC031B6893FAA3F207F1D8031A6007F1D40302221A6007F1D40345
:201900001B6893FAA3F207F1D0031A606E4B5A6A07F1CC030221196007F1CC031B6893FA26
:20192000A3F107F1C803196007F1C8031B68B3FA83F3DBB243F06003DBB203F01F03012187
:2019400001FA03F31340002BB2D13B1D1B681B6803F00403002B00F05781002387F807326F
:20196000594BDB6903F08053002B12D1564BDB69554A43F08053D361534BDB6903F0805246
:2019800007F10C031A6007F10C031B68012387F807324F4B1B6803F48073002B1AD14C4BAC
:2019A0001B684B4A43F480731360FEF76DFFC7F8000209E0FEF768FF0246D7F80032D31AD5
:2019C000642B01D90323FFE2414B1B6803F48073002BEFD03B1D1B689B68012B06D13A4B4E
:2019E0001B6A394A43F0010313622FE03B1D1B689B68002B0CD1344B1B6A334A23F00103A6
:201A00001362314B1B6A304A23F0040313621DE03B1D1B689B68052B0CD12B4B1B6A2A4AF0
:201A200043F004031362284B1B6A274A43F0010313620BE0244B1B6A234A23F0010313620A
:201A4000214B1B6A204A23F0040313623B1D1B689B68002B6AD0FEF717FFC7F800020BE0A2
:201A6000FEF712FF0246D7F80032D31A41F28832934201D90323A7E207F1C40302221A6082
:201A800007F1C4031B6893FAA3F207F1C0031A6007F1BC0302221A6007F1BC031B6893FA91
:201AA000A3F207F1B8031A6007F1B8031B68B3FA83F3DBB25B09DBB243F00203DBB2022B9B
:201AC00008D1014B1B6A13E000100240208190100070004007F1B40302221A6007F1B4032A
:201AE0001B6893FAA3F207F1B0031A60C04B5B6A07F1AC020221116007F1AC02126892FA66
:201B0000A2F107F1A802116007F1A8021268B2FA82F2D2B242F04002D2B202F01F02012132
:201B200001FA02F21340002B9AD063E0FEF7ACFEC7F800020BE0FEF7A7FE0246D7F800325D
:201B4000D31A41F28832934201D903233CE207F1A40302221A6007F1A4031B6893FAA3F237
:201B600007F1A0031A6007F19C0302221A6007F19C031B6893FAA3F207F198031A6007F1DA
:201B800098031B68B3FA83F3DBB25B09DBB243F00203DBB2022B02D1954B1B6A0DE007F177
:201BA000940302221A6007F194031B6893FAA3F207F190031A608E4B5B6A07F18C02022170
:201BC000116007F18C02126892FAA2F107F18802116007F188021268B2FA82F2D2B242F0B0
:201BE0004002D2B202F01F02012101FA02F21340002BA0D197F80732012B05D17C4BDB6937
:201C00007B4A23F08053D3613B1D1B689B69002B00F0D981764B5B6803F00C03082B00F0E8
:201C2000A6813B1D1B689B69022B40F01E8107F184034FF080721A6007F184031B6893FAE9
:201C4000A3F207F180031A6007F180031B68B3FA83F3DBB203F1845303F584139B001A46F7
:201C600000231360FEF710FEC7F8000209E0FEF70BFE0246D7F80032D31A022B01D90323C0
:201C8000A2E107F17C034FF000721A6007F17C031B6893FAA3F207F178031A6007F17803A3
:201CA0001B68B3FA83F3DBB25B09DBB243F00103DBB2012B02D14E4B1B681BE007F17403B7
:201CC0004FF000721A6007F174031B6893FAA3F207F170031A6007F16C034FF000721A604E
:201CE00007F16C031B6893FAA3F207F168031A603F4B5B6A07F164024FF00071116007F135
:201D00006402126892FAA2F107F16002116007F160021268B2FA82F2D2B242F02002D2B2A9
:201D200002F01F02012101FA02F21340002B9ED12F4BDB6A23F00F023B1D1B685B6A2C499A
:201D40001343CB622A4B5B6823F476123B1D1B68196A3B1D1B68DB690B43254913434B60EF
:201D600007F15C034FF080721A6007F15C031B6893FAA3F207F158031A6007F158031B68C2
:201D8000B3FA83F3DBB203F1845303F584139B001A4601231360FEF777FDC7F8000209E094
:201DA000FEF772FD0246D7F80032D31A022B01D9032309E107F154034FF000721A6007F100
:201DC00054031B6893FAA3F207F150031A6007F150031B68B3FA83F3DBB25B09DBB243F0A0
:201DE0000103DBB2012B05D1014B1B681EE000BF0010024007F14C034FF000721A6007F108
:201E00004C031B6893FAA3F207F148031A6007F144034FF000721A6007F144031B6893FA58
:201E2000A3F207F140031A606A4B5B6A07F13C024FF00071116007F13C02126892FAA2F1B8
:201E400007F13802116007F138021268B2FA82F2D2B242F02002D2B202F01F02012101FA87
:201E600002F21340002B9BD0ADE007F134034FF080721A6007F134031B6893FAA3F207F152
:201E800030031A6007F130031B68B3FA83F3DBB203F1845303F584139B001A46002313604C
:201EA000FEF7F2FCC7F8000209E0FEF7EDFC0246D7F80032D31A022B01D9032384E007F1F8
:201EC0002C034FF000721A6007F12C031B6893FAA3F207F128031A6007F128031B68B3FAEC
:201EE00083F3DBB25B09DBB243F00103DBB2012B02D1384B1B681BE007F124034FF000725A
:201F00001A6007F124031B6893FAA3F207F120031A6007F11C034FF000721A6007F11C0395
:201F20001B6893FAA3F207F118031A60294B5B6A07F114024FF00071116007F1140212687F
:201F400092FAA2F107F11002116007F110021268B2FA82F2D2B242F02002D2B202F01F02D4
:201F6000012101FA02F21340002B9ED12BE03B1D1B689B69012B01D1012325E0154B5B682F
:201F8000C7F8FC31134BDB6AC7F8F831D7F8FC3103F4C0323B1D1B68DB699A4211D1D7F839
:201FA000FC3103F470123B1D1B681B6A9A4208D1D7F8F83103F00F023B1D1B685B6A9A42EE
:201FC00001D0012300E00023184607F50277BD4680BD00BF0010024080B59EB000AF7860DB
:201FE000396000237B677B68002B01D1012362E1904B1B6803F007033A689A4210D98D4B62
:020000040800F2
:202000001B6823F007028B493B6813430B60894B1B6803F007033A689A4201D001234AE1F7
:202020007B681B6803F00203002B08D0824B5B6823F0F0027B689B687F4913434B607B6818
:202040001B6803F00103002B00F0DC807B685B68012B3CD14FF400333B673B6F93FAA3F3CB
:20206000FB66FB6EB3FA83F3DBB25B09DBB243F00103DBB2012B02D16F4B1B680FE04FF4C3
:202080000033BB66BB6E93FAA3F37B664FF400333B663B6E93FAA3F3FB65674B5B6A4FF4C2
:2020A0000032BA65BA6D92FAA2F27A657A6DB2FA82F2D2B242F02002D2B202F01F02012111
:2020C00001FA02F21340002B7BD10123F3E07B685B68022B3CD14FF000733B653B6D93FAE9
:2020E000A3F3FB64FB6CB3FA83F3DBB25B09DBB243F00103DBB2012B02D14F4B1B680FE014
:202100004FF00073BB64BB6C93FAA3F37B644FF000733B643B6C93FAA3F3FB63464B5B6AF6
:202120004FF00072BA63BA6B92FAA2F27A637A6BB2FA82F2D2B242F02002D2B202F01F023B
:20214000012101FA02F21340002B3AD10123B2E002233B633B6B93FAA3F3FB62FB6AB3FA34
:2021600083F3DBB25B09DBB243F00103DBB2012B02D1314B1B680DE00223BB62BB6A93FAC8
:20218000A3F37B6202233B623B6A93FAA3F3FB61294B5B6A0222BA61BA6992FAA2F27A6150
:2021A0007A69B2FA82F2D2B242F02002D2B202F01F02012101FA02F21340002B01D1012328
:2021C00079E01D4B5B6823F003027B685B681A4913434B60FEF758FB78670AE0FEF754FB04
:2021E00002467B6FD31A41F28832934201D9032361E0114B5B6803F00C027B685B689B005C
:202200009A42EBD10B4B1B6803F007033A689A4214D2084B1B6823F0070206493B681343B2
:202220000B60044B1B6803F007033A689A4205D0012340E000200240001002407B681B68B3
:2022400003F00403002B08D01D4B5B6823F4E0627B68DB681A4913434B607B681B6803F01A
:202260000803002B09D0164B5B6823F460527B681B69DB00124913434B6000F029F801466C
:202280000F4B5B6803F0F003F0223A613A6992FAA2F2FA60FA68B2FA82F2D2B2D340094A05
:2022A000D35C21FA03F3084A1360084B1B681846FEF7A6FA002318467837BD4680BD00BF21
:2022C0000010024060320008000000200400002080B48BB000AF0023FB610023BB610023CF
:2022E0007B6200237B6100233B622A4B5B68FB61FB6903F00C03042B02D0082B03D03FE022
:20230000254B3B623FE0FB6903F470134FF47012BA60BA6892FAA2F27A607A68B2FA82F2B6
:20232000D2B2D3401D4AD35C7B611A4BDB6A03F00F030F223A613A6992FAA2F2FA60FA689A
:20234000B2FA82F2D2B2D340154AD35CBB61FB6903F48033002B08D00F4ABB69B2FBF3F2FC
:202360007B6902FB03F37B6207E00B4ABB69B2FBF3F27B6902FB03F37B627B6A3B6202E09F
:20238000054B3B6200BF3B6A18462C37BD465DF8047B70470010024000127A00783200080D
:2023A0008832000880B400AF034B1B681846BD465DF8047B704700BF0000002080B582B075
:2023C00000AFFFF7EFFF01460B4B5B6803F4E0634FF4E0627A607A6892FAA2F23A603A6833
:2023E000B2FA82F2D2B2D340044AD35C21FA03F318460837BD4680BD0010024070320008BF
:2024000080B582B000AFFFF7CDFF01460B4B5B6803F460534FF460527A607A6892FAA2F209
:202420003A603A68B2FA82F2D2B2D340044AD35C21FA03F318460837BD4680BD00100240EC
:202440007032000880B592B000AF786000233B640023FB63002387F847307B681B6803F41B
:202460008033002B00F0D4804E4BDB6903F08053002B0ED14B4BDB694A4A43F08053D361E5
:20248000484BDB6903F08053BB60BB68012387F84730454B1B6803F48073002B18D1424BA9
:2024A0001B68414A43F480731360FEF7EDF9386408E0FEF7E9F902463B6CD31A642B01D9F6
:2024C0000323D6E1384B1B6803F48073002BF0D0344B1B6A03F44073FB63FB6B002B00F0B7
:2024E00084807B685B6803F44073FA6B9A427CD02C4B1B6A23F44073FB634FF480333B6343
:202500003B6B93FAA3F3FB62FB6AB3FA83F3DBB21A46264B13449B001A46012313604FF483
:202520008033BB63BB6B93FAA3F37B637B6BB3FA83F3DBB21A461D4B13449B001A460023D0
:202540001360184AFB6B1362FB6B03F00103002B4BD0FEF799F938640AE0FEF795F9024650
:202560003B6CD31A41F28832934201D9032380E10223BB62BB6A93FAA3F37B6202233B627B
:202580003B6A93FAA3F3FB61FB69B3FA83F3DBB25B09DBB243F00203DBB2022B08D1014BFB
:2025A0001B6A0DE00010024000700040008190100223BB61BB6993FAA3F37B61A04B5B6A72
:2025C00002223A613A6992FAA2F2FA60FA68B2FA82F2D2B242F04002D2B202F01F020121EC
:2025E00001FA02F21340002BB7D0954B1B6A23F440727B685B68924913430B6297F847306F
:20260000012B05D18E4BDB698D4A23F08053D3617B681B6803F00103002B08D0884B1B6BF1
:2026200023F003027B689B68854913430B637B681B6803F00203002B08D0814B1B6B23F440
:2026400040327B68DB687E4913430B637B681B6803F00403002B08D0794B1B6B23F4402231
:202660007B681B69764913430B637B681B6803F02003002B08D0724B1B6B23F010027B68A6
:20268000DB696F4913430B637B681B6803F40033002B08D06A4B5B6823F480027B685B6D2B
:2026A000674913434B607B681B6803F04003002B08D0634B1B6B23F020027B681B6A604950
:2026C00013430B637B681B6803F48023002B08D05B4B1B6B23F040027B685B6A5849134313
:2026E0000B637B681B6803F00803002B08D0544B1B6B23F440127B685B69514913430B6372
:202700007B681B6803F01003002B08D04C4B1B6B23F440027B689B69494913430B637B68B4
:202720001B6803F40073002B08D0454B5B6823F400027B681B6B424913434B607B681B68E2
:2027400003F08003002B08D03D4BDB6A23F4F8727B689B6A3A491343CB627B681B6803F467
:202760008073002B08D0364BDB6A23F478527B68DB6A33491343CB627B681B6803F4805365
:20278000002B08D02E4B1B6B23F480727B685B6B2B4913430B637B681B6803F40053002B72
:2027A00008D0274B1B6B23F400727B681B6C244913430B637B681B6803F48013002B08D032
:2027C0001F4B1B6B23F080727B689B6B1C4913430B637B681B6803F40013002B08D0184B1C
:2027E0001B6B23F000727B68DB6B154913430B637B681B6803F48003002B08D0104B1B6BBF
:020000040800F2
:2028000023F480627B685B6C0D4913430B637B681B6803F40003002B08D0094B1B6B23F4A7
:2028200000627B689B6C064913430B637B681B6803F08073002B0CD0014B1B6B02E000BF73
:202840000010024023F400527B68DB6C0B4913430B637B681B6803F00073002B08D0074B5A
:202860001B6B23F400427B681B6D044913430B63002318464837BD4680BD00BF00100240AC
:2028800080B582B000AF78607B68002B01D1012340E07B689B6F002B06D17B68002283F8B7
:2028A00074207868FDF728FF7B6824229A677B681B681A687B681B6822F001021A607868A2
:2028C00000F0C0F80346012B01D1012322E07B685B6A002B02D0786800F08AFA7B681B6884
:2028E0005A687B681B6822F490425A607B681B689A687B681B6822F02A029A607B681B68A2
:202900001A687B681B6842F001021A60786800F011FB034618460837BD4680BD80B58AB0AF
:2029200002AFF860B9603B601346FB80FB689B6F202B40F08280BB68002B02D0FB88002B4E
:2029400001D101237AE0FB6893F87430012B01D1022373E0FB68012283F87420FB68002205
:20296000C3F88020FB6821229A67FDF78DFF7861FB68FA88A3F85020FB68FA88A3F852201A
:20298000FB689B68B3F5805F08D1FB681B69002B04D10023FB61BB68BB6103E0BB68FB616A
:2029A0000023BB61FB68002283F874202DE03B6800937B6900228021F86800F004FB0346C2
:2029C000002B01D0032339E0FB69002B0BD1BB691A88FB681B68C2F3080292B21A85BB69DF
:2029E0000233BB6108E0FB691A78FB681B6892B21A85FB690133FB61FB68B3F852309BB20E
:202A0000013B9AB2FB68A3F85220FB68B3F852309BB2002BCBD13B6800937B69002240217D
:202A2000F86800F0D0FA0346002B01D0032305E0FB6820229A67002300E0022318462037A9
:202A4000BD4680BD80B588B000AF78600023BB777B689A687B681B691A437B685B691A4340
:202A60007B68DB6913437B617B681B681A68AB4B13407A68126879690B4313607B681B6867
:202A80005B6823F440517B68DA687B681B680A435A607B689B697B617B681B6A7A691343D5
:202AA0007B617B681B689B6823F430617B681B687A690A439A607B681B68994A934220D18A
:202AC000984B1B6B03F00303032B17D801A252F823F000BFE52A0008F12A0008F72A000855
:202AE000EB2A00080123FB77B5E00223FB77B2E00423FB77AFE00823FB77ACE01023FB776F
:202B0000A9E07B681B68884A934224D1854B1B6B03F44033B3F5403F11D0B3F5403F17D84C
:202B2000B3F5003F11D0B3F5003F11D8002B03D0B3F5803F06D00BE00023FB778BE00223B2
:202B4000FB7788E00423FB7785E00823FB7782E01023FB777FE07B681B68744A934224D1AC
:202B6000704B1B6B03F44023B3F5402F11D0B3F5402F17D8B3F5002F11D0B3F5002F11D844
:202B8000002B03D0B3F5802F06D00BE00023FB7761E00223FB775EE00423FB775BE0082375
:202BA000FB7758E01023FB7755E07B681B68604A934224D15B4B1B6B03F44013B3F5401F3A
:202BC00011D0B3F5401F17D8B3F5001F11D0B3F5001F11D8002B03D0B3F5801F06D00BE0C0
:202BE0000023FB7737E00223FB7734E00423FB7731E00823FB772EE01023FB772BE07B6896
:202C00001B684C4A934224D1464B1B6B03F44003B3F5400F11D0B3F5400F17D8B3F5000F0B
:202C200011D0B3F5000F11D8002B03D0B3F5800F06D00BE00023FB770DE00223FB770AE01A
:202C40000423FB7707E00823FB7704E01023FB7701E01023FB777B68DB69B3F5004F6DD1EC
:202C6000FB7F082B27D801A252F823F0912C0008992C0008A12C0008B72C0008A72C00087B
:202C8000B72C0008B72C0008B72C0008AF2C0008FFF794FBB86113E0FFF7B2FBB8610FE054
:202CA000254BBB610CE0FFF713FBB86108E04FF40043BB6104E00023BB610123BB7700BFBD
:202CC000BB69002B00F08680BB695A007B685B685B081A447B685B68B2FBF3F39BB23B61A8
:202CE0003B690F2B16D93B69B3F5803F12D23B699BB223F00F03FB813B695B089BB203F03F
:202D000007039AB2FB891343FB817B681B68FA89DA605FE00123BB775CE000BFF369FFEF0A
:202D200000380140001002400044004000480040004C00400050004000127A00FB7F082B67
:202D400027D801A252F823F06D2D0008752D00087D2D0008932D0008832D0008932D00082E
:202D6000932D0008932D00088B2D0008FFF726FBB86113E0FFF744FBB8610FE01B4BBB6121
:202D80000CE0FFF7A5FAB86108E04FF40043BB6104E00023BB610123BB7700BFBB69002B88
:202DA00018D07B685B685A08BB691A447B685B68B2FBF3F39BB23B613B690F2B08D93B691C
:202DC000B3F5803F04D27B681B683A69DA6001E00123BB777B6800225A667B6800229A6672
:202DE000BB7F18462037BD4680BD00BF00127A0080B483B000AF78607B685B6A03F00103CC
:202E0000002B0AD07B681B685B6823F400317B689A6A7B681B680A435A607B685B6A03F04D
:202E20000203002B0AD07B681B685B6823F480317B68DA6A7B681B680A435A607B685B6A5B
:202E400003F00403002B0AD07B681B685B6823F480217B681A6B7B681B680A435A607B68DA
:202E60005B6A03F00803002B0AD07B681B685B6823F400417B685A6B7B681B680A435A60F4
:202E80007B685B6A03F01003002B0AD07B681B689B6823F480517B689A6B7B681B680A4393
:202EA0009A607B685B6A03F02003002B0AD07B681B689B6823F400517B68DA6B7B681B68F6
:202EC0000A439A607B685B6A03F04003002B1AD07B681B685B6823F480117B681A6C7B689B
:202EE0001B680A435A607B681B6CB3F5801F0AD17B681B685B6823F4C0017B685A6C7B682F
:202F00001B680A435A607B685B6A03F08003002B0AD07B681B685B6823F400217B689A6CBA
:202F20007B681B680A435A6000BF0C37BD465DF8047B704780B586B002AF78607B6800229B
:202F4000C3F88020FDF7A0FCF8607B681B681B6803F00803082B0ED16FF07E430093FB681F
:202F600000224FF40011786800F02DF80346002B01D0032323E07B681B681B6803F0040395
:202F8000042B0ED16FF07E430093FB6800224FF48001786800F017F80346002B01D00323DD
:202FA0000DE07B6820229A677B682022DA677B6800221A667B68002283F87420002318467E
:202FC0001037BD4680BD80B59CB000AFF860B9603B601346FB71A5E0BB6FB3F1FF3F00F0E8
:202FE000A180FDF751FC02463B68D31ABA6F9A4202D3BB6F002B3ED1FB681B683B653B6D2B
:020000040800F2
:2030000053E8003FFB64FB6C23F4D0737B66FB681B681A467B6EFB65BA65B96DFA6D41E8D1
:2030200000237B657B6D002BE6D1FB681B680833FB63FB6B53E8003FBB63BB6B23F0010309
:203040003B66FB681B6808333A6EBA647B64796CBA6C41E800233B643B6C002BE5D1FB6828
:2030600020229A67FB682022DA67FB68002283F87420032367E0FB681B681B6803F00403C3
:20308000002B4FD0FB681B68DB6903F40063B3F5006F47D1FB681B684FF400621A62FB68C9
:2030A0001B68BB62BB6A53E8003F7B627B6A23F4D073FB66FB681B681A46FB6E7B633A632A
:2030C000396B7A6B41E80023FB62FB6A002BE6D1FB681B6808337B617B6953E8003F3B6180
:2030E0003B6923F00103BB66FB681B680833BA6E3A62FB61F9693A6A41E80023BB61BB6921
:20310000002BE5D1FB6820229A67FB682022DA67FB682022C3F88020FB68002283F87420AE
:20312000032310E0FB681B68DA69BB681340BA689A420CBF01230023DBB21A46FB799A428D
:203140003FF44AAF002318467037BD4680BD000070B50D4D0D4C641BA4100026A64209D1E8
:203160000B4D0C4C00F020F8641BA4100026A64205D170BD55F8043B98470136EEE755F88F
:20318000043B98470136F2E79832000898320008983200089C32000802440346934200D180
:2031A000704703F8011BF9E7F8B500BFF8BC08BC9E467047F8B500BFF8BC08BC9E46704763
:2031C0000A0A636F707920636F64652066726F6D20424C4B5F320D0A0000000052756E209B
:2031E00070726F6772616D20696E20424C4B5F312066726F6D20426F6F746C6F6164657258
:20320000202E2E2E0D0A0A005772697265206E657720465720746F20424C4B5F312E0D0AE2
:20322000000000004552524F52210A0D0000000057726974652070726576696F757320768E
:20324000657273696F6E206F6620636F6465206261636B20746F20424C4B5F312E0D0A00AC
:203260000000000000000000010203040607080900000000010203040203040506070809F0
:203280000A0B0C0D0E0F10100102030405060708090A0B0C0D0E0F10B901000895010008DB
:2032A00000127A001000000001000000FFFFFFFFFFFFFFFFFFFFFFFFFFFFFFFFFFFFFFFF85
:2032C000FFFFFFFFFFFFFFFFFFFFFFFFFFFFFFFFFFFFFFFFFFFFFFFFFFFFFFFFFFFFFFFF0E
:2032E000FFFFFFFFFFFFFFFFFFFFFFFFFFFFFFFFFFFFFFFFFFFFFFFFFFFFFFFFFFFFFFFFEE
:20330000FFFFFFFFFFFFFFFFFFFFFFFFFFFFFFFFFFFFFFFFFFFFFFFFFFFFFFFFFFFFFFFFCD
:20332000FFFFFFFFFFFFFFFFFFFFFFFFFFFFFFFFFFFFFFFFFFFFFFFFFFFFFFFFFFFFFFFFAD
:020000040800F2
:020000040800F2
:205000000000012095D40008B9650008C7650008CD650008D3650008D965000800000000E4
:20502000000000000000000000000000DF650008ED65000800000000FB65000809660008EB
:20504000E5D4000815660008E5D40008E5D40008E5D40008E5D40008E5D40008E5D4000886
:20506000E5D40008E5D40008E5D40008E5D40008E5D40008E5D40008E5D40008E5D4000828
:20508000E5D40008E5D40008E5D40008E5D40008E5D40008E5D40008E5D40008216600083A
:2050A000E5D40008E5D40008E5D40008E5D40008E5D40008E5D40008E5D40008E5D40008E8
:2050C000E5D40008E5D40008E5D40008E5D40008E5D40008E5D40008E5D40008E5D40008C8
:2050E000E5D4000831660008E5D40008E5D40008E5D40008E5D40008E5D40008E5D40008CA
:20510000E5D400080000000000000000E5D4000845660008E5D40008E5D40008E5D4000817
:20512000E5D40008E5D40008E5D40008E5D40008E5D40008E5D400080000000000000000E9
:20514000E5D40008E5D40008E5D4000800000000000000000000000000000000000000000C
:20516000E5D40008E5D40008E5D40008E5D40008E5D40008E5D40008E5D40008E5D4000827
:20518000E5D40008E5D400080000000000000000E5D40008FFFFFFFFFFFFFFFFFFFFFFFFD8
:2051A00010B5054C237833B9044B13B10448AFF300800123237010BD980000200000000095
:2051C000DCE700080C4B43B10C480D4910B5AFF300800C48036823B910BD0A48036833B917
:2051E0007047094B002BF7D0BDE810401847064B002BF5D0184700BF00000000DCE7000834
:205200009C0000209800002000000000034613F8012B002AFBD1181A013870470000000082
:2052200001F0FF01102A2BDB10F0070F08D010F8013B013A8B422DD010F0070F42B3F6D134
:20524000F0B441EA012141EA014122F007047FF000070023F0E80256083C85EA010586EAE1
:20526000010685FA47F5A3FA87F586FA47F6A5FA87F68EB9EED1F0BC01F0FF0102F00702DC
:2052800032B110F8013B013A83EA010313B1F8D10020704701387047002D06BF354603383F
:2052A000073815F0010F07D1013015F4807F02BF013015F4C03F0130F0BC0138704700BF03
:2052C00080B500AF40F2FF320021084808F041F9064B002283F8FF23044B0022A3F80024A4
:2052E000024B00221A7000BF80BD00BF8801002080B582B000AF7860FFF7E2FF7868FFF7B6
:2053000085FF03469AB24FF4FA737968054804F023FB0346002B01D001F04CF800BF08370C
:20532000BD4680BD040E002080B58CB000AF7860396001F0E7FBB8620023FB6207F10803FA
:2053400020220021184608F004F923E039681C4808F0AFFA0346002B01D001232BE0194918
:20536000174808F0A6FA0346002B0DD007F108033A681549184608F02DFA07F10803184604
:2053800001F050FB002316E001F0BCFB0246BB6AD31AFB62FA6A7B689A42D7D907F1080383
:2053A0003A680A49184608F015FA07F10803184601F038FB002318463037BD4680BD00BF27
:2053C00088010020F4E70008FCE7000810E8000880B582B000AF0346FB71FB79012B23D1F7
:2053E00001220821294801F08BFF642001F096FB01221021254801F083FF4FF4FA7001F09D
:205400008DFB00BF4FF40071204801F053FF0346002BF7D0002210211C4801F071FF40F261
:20542000262001F07BFB24E0FB79002B21D141F2883001F073FB012344F620621449154846
:2054400000F02EF801221021104801F059FF40F28A2001F063FB002210210C4801F050FF2F
:205460004FF4FA6001F05AFB00220821074801F047FFFB79002B01D0074B00E0074B184626
:2054800001F0D0FA00BF0837BD4680BD000800487CEC00088CEC00089CEC0008B0EC00089F
:2054A00080B586B000AFF860B9607A60FB700023FB751A4801F0B6FAF86801F0B3FAF86828
:2054C000FFF716FF642001F029FBB9687868FFF72BFF0346BB75BB7D012B03D1104801F00D
:2054E000A1FA08E0BB7D002B02D1FB7D0133FB75FB7D012BE3D9FB7D022B05D1BB7D002B99
:2055000002D1084801F08EFAFB78002B01D0FFF7D7FEBB7D18461837BD4680BD50F0000848
:2055200068F0000888F0000880B500AF48220021034808F00EF8034800F04AF800BF80BD5A
:205540004001002000F8070880B582B000AF03463960FB7100F020F8FB7904493A6841F8DB
:20556000232000BF0837BD4680BD00BF4001002080B485B000AF78607B6803F1007303F558
:20558000FF339B001B68FB60FB6818461437BD465DF8047B7047000090B583B000AF00237C
:2055A000FB710BE0FC79FB791846FFF7E1FF0246064B43F82420FB790133FB71FB79112B9B
:2055C000F0D900BF0C37BD4690BD00BF4001002090B589B000AF78600023FB7700237B61F7
:2055E0007B68BB6172B603F091FF0023BB607B68FB6001233B6107F1140207F1080311465D
:20560000184604F047F811E0FB7F0F4A52F823304FF000041A462346B969022003F0E8FE6F
:20562000FB7F0133FB77BB690433BB61FB7F112BEAD903F091FF62B6642001F06FFA0123BD
:2056400018462437BD4690BD4001002080B500AF40F27C720021054807F07BFF40F2024287
:205660000021034807F075FF00BF80BD8C0500208801002080B500AF124BB3F800345A1C67
:2056800091B2104AA2F800141A460E4B93F8FF130C4B99540B4BB3F8003440F2FE329342B9
:2056A00003D9084B0022A3F8002401220649074804F0E6F90346002B01D000F07BFE00BFD9
:2056C00080BD00BF8801002087050020040E002080B500AF174A174BDB6823F08073D36024
:2056E000144A144BDB6843F08073D360124A124B1B6823F0010313600F4A0F4B1B6843F022
:20570000010313600C4B00225A6000BF00BF00BF03F03AF90246094BA3FB02239B0C084A24
:205720001360054B5B68002B01D0002300E00123184680BDF0ED00E0001000E083DE1B43B9
:205740003801002080B485B000AF78600C4B5B68FB607B680B4A126802FB03F37B6000BF4C
:20576000074B5A68FB68D21A7968064B1B68CB1A9A42F5D300BF1437BD465DF8047B7047F0
:20578000001000E03801002080B584B000AF0023FB710023BB60374B1B78002B63D0002345
:2057A000FB6013E040214FF0904001F083FD0346002B03D1BB680133BB6001E00023BB60E1
:2057C000BB68092B06DCFB680133FB60FB68312BE8DD00E000BFBB68092B46DD264B1B78FD
:2057E000DBB2002B42D1254B1B78DBB2002B3DD1234B1B78DBB2002B38D1204B01221A703B
:020000040800F2
:2058000000F046F80346FB71FB79022B09D11D4B00221A701C4B00221A801C4B01221A70DF
:205820001DE0FB79032B0CD1174B1B881A46154B00219954124B01221A70144B00221A7004
:205840000DE0124B1B78002B09D00F4B1B885A1C91B20D4A118019460A4AFB795354074BA9
:2058600000221A7002E000BF00E000BF1037BD4680BD00BF3C010020B5000020B6000020EE
:20588000B4000020B80000201C0100201E01002080B582B000AF0023FB7041F64C50FFF773
:2058A00051FF00237B601EE040214FF0904001F001FD0346002B14BF01230023DBB21A46C2
:2058C0007B6802FA03F35AB297F9033013435BB2FB707B68032B03DC41F25630FFF732FF86
:2058E0007B6801337B607B68042BDDDD41F64C50FFF728FFFB7818460837BD4680BD0000AA
:2059000080B483B000AF0023FB710A4B00221A6007E0FB79074A134402221A71FB79013397
:20592000FB71FB79032BF4D900BF0C37BD465DF8047B70472001002080B584B000AF03465A
:205940003960FB71114B1B68FB60FB79104A52F82330DB43BB60FA68BB681A40FB790D49BB
:20596000CB5C19463B688B40134319460120FFF7EBFD0948FFF72CFEFB79184600F00EF846
:20598000034618461037BD4680BD00BF04F80708000000202000002000F8070880B584B03F
:2059A00000AF0346FB710120FFF7E2FDF860FB792E4AD35CFB72FB79082B4FD801A252F8F2
:2059C00023F000BFE9590008F7590008055A0008135A0008215A00082F5A00083D5A0008C4
:2059E000495A0008555A0008FB7AFA6822FA03F303F00F0335E0FB7AFA6822FA03F303F066
:205A000001032EE0FB7AFA6822FA03F303F0010327E0FB7AFA6822FA03F303F0010320E0AD
:205A2000FB7AFA6822FA03F303F0010319E0FB7AFA6822FA03F303F00F0312E0FB7AFA68D6
:205A400022FA03F3DBB20CE0FB7AFA6822FA03F3DBB206E0064800F0E5FF00E000BF4FF45B
:205A6000807318461037BD4680BD00BF200000205CFD000880B58AB000AF07F11C03002297
:205A80001A605A609A603B1D00221A605A609A60DA601A615A61354B4FF0A0421A60334B27
:205AA00000225A60314B00229A60304B01221A612E4B00225A762D4B002283F820202B4B23
:205AC0000022DA62294B01229A62284B0022DA60264B0222DA61254B002283F83020234B6B
:205AE00004225A61214B00221A76204B00225A631E4805F085FA0346002B01D000F05AFCF8
:205B00000023FB6107F11C031946184806F00AFB0346002B01D000F04DFC11237B60012384
:205B2000BB6000233B610723FB6000237B610023BB613B1D19460D4805F07EFE0346002BD7
:205B400001D000F037FC12237B600223BB603B1D1946064805F070FE0346002B01D000F064
:205B600029FC00BF2837BD4680BD00BF100D002080B485B000AF78607B681B68B3F1A04FBD
:205B80000BD1094A084B5B6943F080535361064B5B6903F08053FB60FB6800BF1437BD465F
:205BA0005DF8047B704700BF0010024080B58AB000AF07F1140300221A605A609A60DA6092
:205BC0001A61704A6F4B5B6943F4002353616D4B5B6903F400233B613B696A4A694B5B6902
:205BE00043F480035361674B5B6903F48003FB60FB68644A634B5B6943F400335361614B9F
:205C00005B6903F40033BB60BB685E4A5D4B5B6943F4802353615B4B5B6903F480237B60D7
:205C20007B68584A574B5B6943F480135361554B5B6903F480133B603B68012247215248AA
:205C400001F05EFB0022B8214F4801F059FB002220214FF0904001F053FB4FF444537B61BC
:205C60000323BB610023FB6107F114031946464801F0B4F84F237B610123BB610123FB61BC
:205C800000233B6207F1140319463F4801F0A6F849F69F137B610323BB610023FB6107F13A
:205CA000140319464FF0904001F098F820237B610123BB610223FB6100233B6207F114032F
:205CC00019464FF0904001F089F840237B614FF44413BB610023FB6107F1140319464FF0C3
:205CE000904001F07BF810237B610123BB610223FB6100233B6207F114031946224801F017
:205D00006DF8A0237B610123BB610023FB6100233B6207F1140319461B4801F05FF84FF6A2
:205D2000FF737B610323BB610023FB6107F114031946164801F052F84FF400737B61002398
:205D4000BB610023FB6107F1140319460E4801F045F804237B610323BB610023FB6107F1FA
:205D6000140319460A4801F039F800220021172000F0E4FF172001F00DF800BF2837BD469E
:205D800080BD00BF001002400008004800040048000C004880B5DCB000AF012387F86E3113
:205DA00007F5967340220021184607F0D2FB00F04FFE00F081F9FFF7F9FE00F033FD00F095
:205DC0000DFB00F067FDFFF755FE00F051FAFFF73DFCFFF77DFC00F083FAFFF791FD002133
:205DE000924805F08BFC924807F0DCFC0120FFF7EFFA904807F0D6FC8F4943F69820FFF744
:205E000093FA034687F86F3197F86F31002B00F0FE808A4800F006FE894807F0C3FC8948A7
:205E2000FFF766FA884941F28830FFF77DFA034687F86F3197F86F31002B00F0EA807F4800
:205E400000F0F0FD3B467D49184607F02AFD3B467E49184607F02DFD0346002B0DD07C48C6
:205E600007F0A0FC7B4807F09DFC7B48FFF740FA754941F28830FFF757FA3B4677491846BA
:205E800007F017FD0346002B0DD1754807F08AFC744807F087FC7448FFF72AFA6A4941F279
:205EA0008830FFF741FA3B467049184607F001FD0346002B0DD16E4807F074FC6D4807F051
:205EC00071FC6D48FFF714FA5F4941F28830FFF72BFA3B465D49184607F0EBFC0346002B17
:205EE00015D1664807F05EFC6548FFF701FA6548FFF7FEF9544941F28830FFF715FA97F869
:205F00006F31002B00F087804C4800F08BFD3B465249184607F0CDFC0346002B14D15A487E
:205F200007F040FC5948FFF7E3F95948FFF7E0F9454941F28830FFF7F7F997F86F31002B92
:205F40006BD03E4800F06EFD3B464849184607F0B0FC0346002B14D14E4807F023FC4E4877
:205F6000FFF7C6F94D48FFF7C3F9374941F28830FFF7DAF997F86F31002B50D02F4800F010
:205F800051FD4FF4FA7000F0C9FD454807F00AFC2C48FFF7ADF92C4941F28830FFF7C4F9A3
:205FA000034687F86F3197F86F31002B39D0234800F038FD3B462149184607F072FC394857
:205FC00007F0F0FB3B462149184607F072FC0346002B02D0344807F0E5FB3B461F49184651
:205FE00007F067FC0346002B02D0304807F0DAFB3B461E49184607F05CFC0346002B02D0E2
:020000040800F2
:206000002B4807F0CFFB274807F0CCFB0AE000BF08E000BF06E000BF04E000BF02E000BFE6
:2060200000E000BF234807F0BDFBFEE7100D0020B4FD000800FE000824FE000888010020F3
:2060400028FE000838FE000844FE000848FE000858FE000870FE00089CFE0008B8FE000808
:20606000C8FE0008E0FE00080CFF000828FF000838FF000850FF00087CFF000898FF000872
:20608000C4FF0008ECFF0008BC040108E804010810050108E00901080C0A0108340A01080E
:2060A000E0100108F81001082011010844110108681101088C11010880B5A6B000AF07F1E4
:2060C000700328220021184607F043FA07F15C0300221A605A609A60DA601A613B1D582222
:2060E0000021184607F035FA03F096F8294A294B1B6A23F01803136205233B674FF48033AB
:206100007B670123BB670123FB670223C7F888304FF48033C7F88C300023C7F890300023FF
:20612000C7F8943007F17003184601F031F90346002B01D000F03EF90F23FB6501233B6635
:2061400000237B660023BB660023FB6607F15C030021184602F08EF90346002B01D000F0EF
:2061600029F90D4B7B600023FB600023BB614FF48073FB624FF48073BB603B1D184602F081
:2061800053FC0346002B01D000F014F900BF9837BD4680BD001002408900010080B483B05D
:2061A00000AF7860044B01225A7000BF0C37BD465DF8047B704700BF080D002080B582B031
:2061C00000AF78607B68044A934201D1FFF752FA00BF0837BD4680BD040E002080B582B047
:2061E00000AF0346FB80FB88022B16D0402B00D014E00520FFF7D2FB0346032B07D1094BDC
:206200001B78DBB20133DAB2064B1A7001E0FFF7BBFA054B40225A6100E000BF00BF08372D
:20622000BD4680BD080D00200004014080B400AF064B1B68B3F1806F0CBF01230023DBB2BB
:206240001846BD465DF8047B704700BF2410024080B400AF054A054B1B6843F0807313607F
:2062600000BFBD465DF8047B704700BF2410024080B500AF01220549054803F001FC0346C1
:20628000002B01D000F096F800BF80BD87050020040E002080B500AF0E4800F0C3FB0021A1
:2062A0000520FFF749FBFFF73FF9FFF775F90A4B6FF060425A62084B00229A62064B0122F6
:2062C0005A64054B45F615329A630448FFF780F900BF80BDB01101084001002000F8070848
:2062E00080B584B000AF0120FFF742F9F8601120FFF73EF9B8600C20FFF73AF97860FB68D6
:20630000B3F1FF3F07D0BB68B3F1FF3F03D07B68B3F1FF3F01D1FFF7BDFF00210520FFF767
:206320000BFBFFF783FF0346002B15D01D4800F079FB00210220FFF7FFFAFFF72DF91A4B0A
:206340006FF060425A62184B00229A62164B0022DA621648FFF73CF9154B00221A7000208B
:20636000FFF706F90346102B02D1114B01221A7000210120FFF7E0FAFFF70EF90A4B002242
:206380001A60094B01225A64074B45F615329A630648FFF71DF9FFF75BFF00BF1037BD46CA
:2063A00080BD00BFC41101084001002000F807080B0D002080B400AF72B6FEE780B582B00C
:2063C00000AF786039603A687968034807F076F900BF0837BD4680BDD411010880B590B0C8
:2063E00000AF07F12C0300221A605A609A60DA601A610023BB623B4628220021184607F041
:20640000A8F83A4B3A4A1A60384B00225A60374B7F229A60354BFF22DA60344B00221A61E6
:20642000324B00225A61314B00229A612F4806F05DF80346002B01D0FFF7BCFF002387F80F
:206440002C30002387F82D30002387F82E300023BB630023FB6307F12C030022194623480C
:2064600006F038F90346002B01D0FFF7A3FF012387F82830012387F82930012387F82A3024
:20648000002387F82B3007F1280300221946174806F08CFA0346002B01D0FFF78BFF002398
:2064A0003B7000237B700023BB7000237B600023FB6000233B6100237B610023BB61002339
:2064C000FB61012387F820304FF480737B623B4600221946054806F099FB0346002B01D03C
:2064E000FFF768FF00BF4037BD4680BD600D00200028004080B584B000AF78607B681B687E
:20650000104A934219D14FF40043FB60FB6893FAA3F3BB60BB68B3FA83F3DBB21A460A4B58
:2065200013449B001A460123136000220021292000F004FC292000F02DFC00BF1037BD468B
:2065400080BD00BF002800400081901080B584B000AF174A164B9B6943F001039361144B4E
:206560009B6903F001037B607B68114A104BDB6943F08053D3610E4BDB6903F080533B6030
:206580003B6800220021012000F0D8FB012000F001FCE023BB60074BFB6007F108031846F7
:2065A00002F04AFE02F0FAFE00BF1037BD4680BD001002400200010080B400AF00BFBD4677
:2065C0005DF8047B704780B400AFFEE780B400AFFEE780B400AFFEE780B400AFFEE780B4DC
:2065E00000AF00BFBD465DF8047B704780B400AF00BFBD465DF8047B704780B400AF00BFCD
:20660000BD465DF8047B704780B500AF00F066FA00BF80BD80B500AF02F0D0FE00BF80BD1C
:2066200080B500AF402000F09BFE00BF80BD000080B500AF024806F0D5FD00BF80BD00BFE0
:20664000600D002080B500AF024803F067FA00BF80BD00BF040E002090B587B000AFF860BB
:20666000B9607A6000237B610AE0BC68631CBB60AFF300800346DBB223707B6901337B6101
:206680007A697B689A42F0DB7B6818461C37BD4690BD80B586B000AFF860B9607A60002321
:2066A0007B6109E0BB685A1CBA601B78184600F0A7F97B6901337B617A697B689A42F1DB7F
:2066C0007B6818461837BD4680BD80B483B000AF78604FF0FF3318460C37BD465DF8047B13
:2066E000704780B483B000AF786039603B684FF400525A60002318460C37BD465DF8047BCF
:20670000704780B483B000AF7860012318460C37BD465DF8047B704780B485B000AFF86011
:20672000B9607A60002318461437BD465DF8047B7047000080B584B000AF7860114B1B683D
:20674000002B02D10F4B104A1A600E4B1B68FB600C4B1A687B6813446A46934207D906F068
:20676000C3FE02460C2313604FF0FF3306E0054B1A687B681344034A1360FB681846103743
:20678000BD4680BD28010020B80E002080B400AF1F4A1F4BD3F8883043F47003C2F8883035
:2067A0001C4A1C4B1B6843F0010313601949194B5A68194B13404B60164A164B1B6823F09E
:2067C000847323F480331360124A124B1B6823F4802313600F4A0F4B5B6823F4FE035360DB
:2067E0000C4A0C4BDB6A23F00F03D3620949094B1A6B0A4B13400B63064B00229A60044B50
:020000040800F2
:20680000074A9A6000BFBD465DF8047B704700BF00ED00E0001002400CC07FF8CCFC00FFF8
:206820000050000880B500AF184B194A1A60174B4FF4E1325A60154B00229A60134B00226E
:20684000DA60124B00221A61104B0C225A610F4B00229A610D4B0022DA610C4B00221A629F
:206860000A4B30225A62094B4FF480529A63074B4FF40052DA63054802F0DCFF0346002B9D
:2068800001D0FFF797FD00BF80BD00BF040E0020004C004080B500AF184B194A1A60174B9E
:2068A0004FF4E1325A60154B00229A60134B0022DA60124B00221A61104B0C225A610F4BFA
:2068C00000229A610D4B0022DA610C4B00221A620A4B30225A62094B4FF480529A63074BD6
:2068E0004FF40052DA63054802F0A4FF0346002B01D0FFF75FFD00BF80BD00BF800D0020E5
:206900000038014080B58CB000AF786007F11C0300221A605A609A60DA601A617B681B6884
:20692000334A934231D1334A324BDB6943F40023D361304BDB6903F40023BB61BB692D4AA7
:206940002C4B5B6943F4002353612A4B5B6903F400237B617B694FF44063FB6102233B62D7
:2069600000237B620323BB620523FB6207F11C031946214800F032FA00220021342000F0CD
:20698000DDF9342000F006FA2EE07B681B681B4A934229D1174A174B9B6943F48043936180
:2069A000144B9B6903F480433B613B69114A114B5B6943F4003353610E4B5B6903F400339A
:2069C000FB60FB684FF4C063FB6102233B6200237B620323BB620723FB6207F11C03194635
:2069E0004FF0904000F0FAF900BF3037BD4680BD004C004000100240000800480038014098
:206A000080B582B000AF7860391D4FF6FF730122034802F0A1FF7B6818460837BD4680BDBB
:206A2000800D002080B582B000AF78607868FEF7EDFB03469AB24FF4FA737968034802F09B
:206A40008BFF00BF0837BD4680BD00BF800D002080B500AF084A084B1B6843F0100313603D
:206A6000032000F04BF9002000F008F8FFF76EFD0023184680BD00BF0020024080B582B008
:206A800000AF7860124B1A68124B1B7819464FF47A73B3FBF1F3B2FBF3F3184600F092F913
:206AA0000346002B01D001230EE07B680F2B0AD8002279684FF0FF3000F040F9064A7B68B3
:206AC0001360002300E0012318460837BD4680BD28000020300000202C00002080B400AF78
:206AE000064B1B781A46064B1B681344044A136000BFBD465DF8047B704700BF300000200A
:206B0000880E002080B400AF034B1B681846BD465DF8047B704700BF880E002080B584B041
:206B200000AF7860FFF7EEFFB8607B68FB60FB68B3F1FF3F05D0094B1B781A46FB6813447A
:206B4000FB6000BFFFF7DEFF0246BB68D21AFB689A42F7D300BF1037BD4680BD3000002052
:206B600080B485B000AF78607B6803F00703FB600C4BDB68BB60BA684FF6FF031340BB605E
:206B8000FB681A02BB68134343F0BF6343F40033BB60044ABB68D36000BF1437BD465DF81D
:206BA000047B704700ED00E080B400AF044BDB681B0A03F007031846BD465DF8047B70474F
:206BC00000ED00E080B483B000AF0346FB7197F90730002B0BDB094997F907305B09FA7955
:206BE00002F01F02012000FA02F241F8232000BF0C37BD465DF8047B704700BF00E100E0E7
:206C000080B483B000AF03463960FB7197F90730002B0ADB0D4997F907303A68D2B21201E3
:206C2000D2B20B4483F800230AE00949FB7903F00F03043B3A68D2B21201D2B20B441A7653
:206C400000BF0C37BD465DF8047B704700E100E000ED00E080B489B000AFF860B9607A60AF
:206C6000FB6803F00703FB61FB69C3F10703042B28BF0423BB61FB690433062B02D9FB69D2
:206C8000033B00E000237B610122BB6902FA03F35A1EBB681A407B699A4001217B6901FAEA
:206CA00003F3591E7B680B40134318462437BD465DF8047B7047000080B582B000AF7860AE
:206CC0007B68013BB3F1807F01D301230FE00A4A7B68013B53600F214FF0FF30FFF790FFC2
:206CE000054B00229A60044B07221A60002318460837BD4680BD00BF10E000E080B582B040
:206D000000AF78607B68072B0FD07B68062B0CD07B68052B09D07B68042B06D07B68032B23
:206D200003D0AC210448FFF749FB7868FFF718FF00BF0837BD4680BD0412010880B586B078
:206D400000AF0346B9607A60FB7300237B617B680F2B03D9C4210E48FFF730FBBB680F2B29
:206D600003D9C5210A48FFF729FBFFF71DFF78617A68B9687869FFF76DFF024697F90F309D
:206D800011461846FFF73CFF00BF1837BD4680BD0412010880B582B000AF0346FB7197F945
:206DA0000730002B03DAD8210548FFF707FB97F907301846FFF706FF00BF0837BD4680BDF8
:206DC0000412010880B582B000AF78607868FFF773FF034618460837BD4680BD80B586B0CD
:206DE00000AF7860396000237B617B68B3F1904F1FD07B683A4A93421BD07B68394A9342BD
:206E000017D07B68384A934213D07B68374A93420FD07B68364A93420BD07B68354A93420C
:206E200007D07B68344A934203D0B2213348FFF7C5FA3B681B689BB2002B05D03B681B68D6
:206E40001B0C1B04002B03D0B3212C48FFF7B6FA3B685B68002B00F01C823B685B68012B4F
:206E600000F017823B685B68112B00F012823B685B68022B00F00D823B685B68122B00F0BE
:206E800008823B685B68B3F5881F00F002823B685B68B3F5041F00F0FC813B685B68B3F593
:206EA000441F00F0F6813B685B68B3F5901F00F0F0813B685B68B3F5081F00F0EA813B68B7
:206EC0005B68B3F5481F00F0E4813B685B68032B00F0DF81B4210948FFF770FAD9E100BFA8
:206EE0000004004800080048000C0048001000480014004800180048001C00483C120108D3
:206F00003B681A6801217B6901FA03F31340FB60FB68002B00F0BA813B685B6803F003038F
:206F2000012B05D03B685B6803F00303022B40D13B68DB68002B0BD03B68DB68012B07D0DE
:206F40003B68DB68032B03D0C3219448FFF736FA7B689B683B617B695B00032202FA03F38C
:206F6000DB433A6913403B613B68DA687B695B0002FA03F33A6913433B617B683A699A6036
:206F80007B685B683B6101227B6902FA03F3DB433A6913403B613B685B681B0903F0010286
:206FA0007B6902FA03F33A6913433B617B683A695A603B685B6803F00303032B27D03B68FF
:206FC0009B68002B0BD03B689B68012B07D03B689B68022B03D0D4217048FFF7EFF97B68EB
:206FE000DB683B617B695B00032202FA03F3DB433A6913403B613B689A687B695B0002FACC
:020000040800F2
:2070000003F33A6913433B617B683A69DA603B685B6803F00303022B57D17B68B3F1904F0B
:207020001FD07B685E4A93421BD07B685D4A934217D07B685C4A934213D07B685B4A934232
:207040000FD07B685A4A93420BD07B68594A934207D07B68584A934203D0E2214F48FFF72B
:20706000ADF93B681B690C2B0BD93B681B690E2B07D03B681B690F2B03D0E3214748FFF734
:207080009DF97B69DA087B68083253F822303B617B6903F007039B000F2202FA03F3DB4381
:2070A0003A6913403B613B681A697B6903F007039B0002FA03F33A6913433B617B69DA084F
:2070C0007B680832396943F822107B681B683B617B695B00032202FA03F3DB433A69134018
:2070E0003B613B685B6803F003027B695B0002FA03F33A6913433B617B683A691A603B682D
:207100005B6803F44033002B00F0C0802B4A2B4B9B6943F001039361284B9B6903F001035F
:20712000BB60BB68264A7B699B08023352F823303B617B6903F003039B000F2202FA03F311
:20714000DB433A6913403B617B68B3F1904F39D07B68134A93421FD07B68124A934219D00F
:207160007B68114A934213D07B68104A93420DD07B680F4A934207D07B680E4A934201D160
:20718000062320E007231EE005231CE004231AE0032318E0022316E0012314E03C120108B1
:2071A0000004004800080048000C0048001000480014004800180048001C00480010024015
:2071C0000000014000237A6902F00302920093403A6913433B6135497B699B0802333A699A
:2071E00041F82320324B1B683B61FB68DB433A6913403B613B685B6803F48033002B03D056
:207200003A69FB6813433B61294A3B691360284B5B683B61FB68DB433A6913403B613B6864
:207220005B6803F40033002B03D03A69FB6813433B611F4A3B6953601D4B9B683B61FB6841
:20724000DB433A6913403B613B685B6803F48013002B03D03A69FB6813433B61144A3B6996
:207260009360134BDB683B61FB68DB433A6913403B613B685B6803F40013002B03D03A69BA
:20728000FB6813433B610A4A3B69D3607B6901337B613B681A687B6922FA03F3002B7FF4C1
:2072A0002FAE00BF1837BD4680BD00BF000001400004014080B584B000AF78600B467B8022
:2072C0007B88002B04D07B881B0C1B04002B04D04FF4C2710948FFF771F87B681A697B88D5
:2072E0001340002B02D00123FB7301E00023FB73FB7B18461037BD4680BD00BF3C120108C9
:2073000080B582B000AF78600B467B8013467B707B88002B04D07B881B0C1B04002B04D0A5
:207320004FF4D2710D48FFF749F87B78002B07D07B78012B04D040F2A5110848FFF73EF8EF
:207340007B78002B03D07A887B689A6102E07A887B689A6200BF0837BD4680BD3C12010804
:2073600080B582B000AF0346FB80084B5A69FB881340002B06D0054AFB885361FB881846DF
:20738000FEF72CFF00BF0837BD4680BD0004014080B5ADF5027D00AF3B1D18603B1D1B689A
:2073A000002B02D1012301F05EB83B1D1B681B68002B20D03B1D1B681B6803F00103002BAB
:2073C00019D13B1D1B681B6803F00203002B12D13B1D1B681B6803F00803002B0BD13B1DA4
:2073E0001B681B6803F00403002B04D140F24B11BE48FEF7E3FF3B1D1B681B6803F00103CD
:20740000002B00F078813B1D1B685B68002B10D03B1D1B685B68B3F5803F0AD03B1D1B68F5
:207420005B68B3F5A02F04D040F25111AF48FEF7C5FFAF4B5B6803F00C03042B0CD0AC4B39
:207440005B6803F00C03082B59D1A94B5B6803F4C033B3F5803F52D14FF40033C7F8F43185
:20746000D7F8F43193FAA3F3C7F8F031D7F8F031B3FA83F3DBB25B09DBB243F00103DBB2C0
:20748000012B02D19A4B1B6815E04FF40033C7F8EC31D7F8EC3193FAA3F3C7F8E8314FF414
:2074A0000033C7F8E431D7F8E43193FAA3F3C7F8E0318F4B5B6A4FF40032C7F8DC21D7F84F
:2074C000DC2192FAA2F2C7F8D821D7F8D821B2FA82F2D2B242F02002D2B202F01F0201215E
:2074E00001FA02F21340002B00F004813B1D1B685B68002B40F0FE80012300F0B4BF3B1D54
:207500001B685B68B3F5803F06D1794A784B1B6843F48033136030E03B1D1B685B68002BA8
:207520000CD1734A724B1B6823F480331360704A6F4B1B6823F4802313601EE03B1D1B6837
:207540005B68B3F5A02F0CD1694A694B1B6843F480231360664A664B1B6843F4803313609C
:207560000BE0634A624B1B6823F480331360604A5F4B1B6823F4802313603B1D1B685B6864
:20758000002B59D0FFF7BEFAC7F800020AE0FFF7B9FA0246D7F80032D31A642B02D90323CF
:2075A00000F061BF4FF40033C7F8D431D7F8D43193FAA3F3C7F8D031D7F8D031B3FA83F3D7
:2075C000DBB25B09DBB243F00103DBB2012B02D1474B1B6815E04FF40033C7F8CC31D7F85F
:2075E000CC3193FAA3F3C7F8C8314FF40033C7F8C431D7F8C43193FAA3F3C7F8C0313C4B6B
:207600005B6A4FF40032C7F8BC21D7F8BC2192FAA2F2C7F8B821D7F8B821B2FA82F2D2B2E4
:2076200042F02002D2B202F01F02012101FA02F21340002BABD05EE0FFF764FAC7F8000202
:207640000AE0FFF75FFA0246D7F80032D31A642B02D9032300F007BF4FF40033C7F8B4315B
:20766000D7F8B43193FAA3F3C7F8B031D7F8B031B3FA83F3DBB25B09DBB243F00103DBB27E
:20768000012B02D11A4B1B6815E04FF40033C7F8AC31D7F8AC3193FAA3F3C7F8A8314FF452
:2076A0000033C7F8A431D7F8A43193FAA3F3C7F8A0310F4B5B6A4FF40032C7F89C21D7F8CD
:2076C0009C2192FAA2F2C7F89821D7F89821B2FA82F2D2B242F02002D2B202F01F0201211C
:2076E00001FA02F21340002BABD104E0741201080010024000BF3B1D1B681B6803F00203C7
:20770000002B00F08E813B1D1B68DB68002B09D03B1D1B68DB68012B04D040F28911A84843
:20772000FEF74CFE3B1D1B681B691F2B04D94FF4C571A348FEF742FEA24B5B6803F00C0339
:20774000002B0CD09F4B5B6803F00C03082B6DD19C4B5B6803F4C033B3F5004F66D102231B
:20776000C7F89431D7F8943193FAA3F3C7F89031D7F89031B3FA83F3DBB25B09DBB243F0EA
:207780000103DBB2012B02D18E4B1B6813E00223C7F88C31D7F88C3193FAA3F3C7F8883142
:2077A0000223C7F88431D7F8843193FAA3F3C7F88031844B5B6A0222C7F87C21D7F87C2199
:2077C00092FAA2F2C7F87821D7F87821B2FA82F2D2B242F02002D2B202F01F02012101FA1D
:2077E00002F21340002B07D03B1D1B68DB68012B02D0012300F037BE7248724B1B6823F00E
:020000040800F2
:20780000F8023B1D1B681B69F821C7F87411D7F8741191FAA1F1C7F87011D7F87011B1FA06
:2078200081F1C9B28B4013430360FAE03B1D1B68DB68002B00F085800123C7F86C31D7F870
:207840006C3193FAA3F3C7F86831D7F86831B3FA83F3DBB203F1845303F584139B001A46A3
:2078600001231360FFF74EF9C7F800020AE0FFF749F90246D7F80032D31A022B02D90323ED
:2078800000F0F1BD0223C7F86431D7F8643193FAA3F3C7F86031D7F86031B3FA83F3DBB2EA
:2078A0005B09DBB243F00103DBB2012B02D1454B1B6813E00223C7F85C31D7F85C3193FAB4
:2078C000A3F3C7F858310223C7F85431D7F8543193FAA3F3C7F850313A4B5B6A0222C7F87D
:2078E0004C21D7F84C2192FAA2F2C7F84821D7F84821B2FA82F2D2B242F02002D2B202F0F1
:207900001F02012101FA02F21340002BAFD02D482C4B1B6823F0F8023B1D1B681B69F82144
:20792000C7F84411D7F8441191FAA1F1C7F84011D7F84011B1FA81F1C9B28B4013430360A6
:207940006FE00123C7F83C31D7F83C3193FAA3F3C7F83831D7F83831B3FA83F3DBB203F125
:20796000845303F584139B001A4600231360FFF7C9F8C7F800020AE0FFF7C4F80246D7F8E5
:207980000032D31A022B02D9032300F06CBD0223C7F83431D7F8343193FAA3F3C7F83031C1
:2079A000D7F83031B3FA83F3DBB25B09DBB243F00103DBB2012B07D1024B1B6818E000BFA7
:2079C00074120108001002400223C7F82C31D7F82C3193FAA3F3C7F828310223C7F82431E5
:2079E000D7F8243193FAA3F3C7F82031C04B5B6A0222C7F81C21D7F81C2192FAA2F2C7F855
:207A00001821D7F81821B2FA82F2D2B242F02002D2B202F01F02012101FA02F21340002B07
:207A2000AAD13B1D1B681B6803F00803002B00F0E7803B1D1B685B69002B09D03B1D1B686F
:207A40005B69012B04D04FF4E571AA48FEF7B6FC3B1D1B685B69002B66D00123C7F8143108
:207A6000D7F8143193FAA3F3C7F81031D7F81031B3FA83F3DBB21A469F4B13449B001A4673
:207A800001231360FFF73EF8C7F800020AE0FFF739F80246D7F80032D31A022B02D90323ED
:207AA00000F0E1BC0223C7F80C31D7F80C3193FAA3F207F584731A6007F5827302221A60EE
:207AC00007F582731B6893FAA3F207F580731A6007F1FC0302221A6007F1FC031B6893FA0B
:207AE000A3F207F1F8031A60814B5A6A07F1F4030221196007F1F4031B6893FAA3F107F1DE
:207B0000F003196007F1F0031B68B3FA83F3DBB243F06003DBB203F01F03012101FA03F390
:207B20001340002BB3D06BE007F1EC0301221A6007F1EC031B6893FAA3F207F1E8031A608C
:207B400007F1E8031B68B3FA83F3DBB21A466A4B13449B001A4600231360FEF7D3FFC7F88C
:207B600000020AE0FEF7CEFF0246D7F80032D31A022B02D9032300F076BC07F1E4030222CE
:207B80001A6007F1E4031B6893FAA3F207F1E0031A6007F1DC0302221A6007F1DC031B68C3
:207BA00093FAA3F207F1D8031A6007F1D40302221A6007F1D4031B6893FAA3F207F1D003AA
:207BC0001A604B4B5A6A07F1CC030221196007F1CC031B6893FAA3F107F1C803196007F1CF
:207BE000C8031B68B3FA83F3DBB243F06003DBB203F01F03012101FA03F31340002BB1D13C
:207C00003B1D1B681B6803F00403002B00F07181002387F807323B1D1B689B68002B0ED03D
:207C20003B1D1B689B68012B09D03B1D1B689B68052B04D04FF4FB712E48FEF7BFFB2C4B34
:207C4000DB6903F08053002B12D1294A284BDB6943F08053D361264BDB6903F0805207F136
:207C60000C031A6007F10C031B68012387F80732224B1B6803F48073002B1AD11F4A1F4B52
:207C80001B6843F480731360FEF73CFFC7F8000209E0FEF737FF0246D7F80032D31A642BFA
:207CA00001D90323DFE3154B1B6803F48073002BEFD03B1D1B689B68012B06D10C4A0C4BBD
:207CC0001B6A43F00103136238E03B1D1B689B68002B15D1064A064B1B6A23F001031362BA
:207CE000034A034B1B6A23F00403136226E000BF001002407412010820819010007000403E
:207D00003B1D1B689B68052B0CD15E4A5D4B1B6A43F0040313625B4A5A4B1B6A43F00103EE
:207D200013620BE0574A574B1B6A23F001031362544A544B1B6A23F0040313623B1D1B6863
:207D40009B68002B64D0FEF7DDFEC7F800020BE0FEF7D8FE0246D7F80032D31A41F2883257
:207D6000934201D903237EE307F1C40302221A6007F1C4031B6893FAA3F207F1C0031A60D7
:207D800007F1BC0302221A6007F1BC031B6893FAA3F207F1B8031A6007F1B8031B68B3FA22
:207DA00083F3DBB25B09DBB243F00203DBB2022B02D1344B1B6A0DE007F1B40302221A60CC
:207DC00007F1B4031B6893FAA3F207F1B0031A602C4B5B6A07F1AC020221116007F1AC020E
:207DE000126892FAA2F107F1A802116007F1A8021268B2FA82F2D2B242F04002D2B202F02D
:207E00001F02012101FA02F21340002BA0D066E0FEF778FEC7F800020BE0FEF773FE024637
:207E2000D7F80032D31A41F28832934201D9032319E307F1A40302221A6007F1A4031B6837
:207E400093FAA3F207F1A0031A6007F19C0302221A6007F19C031B6893FAA3F207F19803E7
:207E60001A6007F198031B68B3FA83F3DBB25B09DBB243F00203DBB2022B05D1014B1B6A38
:207E800010E000BF0010024007F1940302221A6007F194031B6893FAA3F207F190031A607B
:207EA000AD4B5B6A07F18C020221116007F18C02126892FAA2F107F18802116007F1880257
:207EC0001268B2FA82F2D2B242F04002D2B202F01F02012101FA02F21340002B9DD197F8ED
:207EE0000732012B05D19C4A9B4BDB6923F08053D3613B1D1B689B69002B0ED03B1D1B685A
:207F00009B69012B09D03B1D1B689B69022B04D040F23A219148FEF751FA3B1D1B689B69F3
:207F2000002B00F09F828C4B5B6803F00C03082B00F06C823B1D1B689B69022B40F0E481B7
:207F40003B1D1B68DB69B3F5004F0AD03B1D1B68DB69B3F5803F04D040F243217F48FEF785
:207F60002DFA3B1D1B681B6A002B58D03B1D1B681B6AB3F5802F52D03B1D1B681B6AB3F546
:207F8000002F4CD03B1D1B681B6AB3F5402F46D03B1D1B681B6AB3F5801F40D03B1D1B6877
:207FA0001B6AB3F5A01F3AD03B1D1B681B6AB3F5C01F34D03B1D1B681B6AB3F5E01F2ED0DB
:207FC0003B1D1B681B6AB3F5001F28D03B1D1B681B6AB3F5101F22D03B1D1B681B6AB3F551
:207FE000201F1CD03B1D1B681B6AB3F5301F16D03B1D1B681B6AB3F5401F10D03B1D1B68F7
:020000040800F2
:208000001B6AB3F5501F0AD03B1D1B681B6AB3F5601F04D04FF411715048FEF7CFF93B1D1D
:208020001B685B6A002B4FD03B1D1B685B6A012B4AD03B1D1B685B6A022B45D03B1D1B680B
:208040005B6A032B40D03B1D1B685B6A042B3BD03B1D1B685B6A052B36D03B1D1B685B6ACD
:20806000062B31D03B1D1B685B6A072B2CD03B1D1B685B6A082B27D03B1D1B685B6A092B62
:2080800022D03B1D1B685B6A0A2B1DD03B1D1B685B6A0B2B18D03B1D1B685B6A0C2B13D0B4
:2080A0003B1D1B685B6A0D2B0ED03B1D1B685B6A0E2B09D03B1D1B685B6A0F2B04D040F278
:2080C00046212648FEF77AF907F184034FF080721A6007F184031B6893FAA3F207F180039A
:2080E0001A6007F180031B68B3FA83F3DBB203F1845303F584139B001A4600231360FEF778
:2081000001FDC7F8000209E0FEF7FCFC0246D7F80032D31A022B01D90323A4E107F17C036B
:208120004FF000721A6007F17C031B6893FAA3F207F178031A6007F178031B68B3FA83F3F2
:20814000DBB25B09DBB243F00103DBB2012B07D1014B1B6820E000BF00100240741201086A
:2081600007F174034FF000721A6007F174031B6893FAA3F207F170031A6007F16C034FF0C6
:2081800000721A6007F16C031B6893FAA3F207F168031A60B64B5B6A07F164024FF0007136
:2081A000116007F16402126892FAA2F107F16002116007F160021268B2FA82F2D2B242F0E2
:2081C0002002D2B202F01F02012101FA02F21340002B99D1A649A64BDB6A23F00F023B1D4C
:2081E0001B685B6A1343CB62A148A14B5B6823F476123B1D1B68196A3B1D1B68DB690B43B2
:208200001343436007F15C034FF080721A6007F15C031B6893FAA3F207F158031A6007F1A2
:2082200058031B68B3FA83F3DBB203F1845303F584139B001A4601231360FEF763FCC7F8B1
:20824000000209E0FEF75EFC0246D7F80032D31A022B01D9032306E107F154034FF000729A
:208260001A6007F154031B6893FAA3F207F150031A6007F150031B68B3FA83F3DBB25B09E9
:20828000DBB243F00103DBB2012B02D1784B1B681BE007F14C034FF000721A6007F14C0394
:2082A0001B6893FAA3F207F148031A6007F144034FF000721A6007F144031B6893FAA3F20E
:2082C00007F140031A606A4B5B6A07F13C024FF00071116007F13C02126892FAA2F107F151
:2082E0003802116007F138021268B2FA82F2D2B242F02002D2B202F01F02012101FA02F287
:208300001340002B9ED0ADE007F134034FF080721A6007F134031B6893FAA3F207F130030B
:208320001A6007F130031B68B3FA83F3DBB203F1845303F584139B001A4600231360FEF785
:20834000E1FBC7F8000209E0FEF7DCFB0246D7F80032D31A022B01D9032384E007F12C03DD
:208360004FF000721A6007F12C031B6893FAA3F207F128031A6007F128031B68B3FA83F3A0
:20838000DBB25B09DBB243F00103DBB2012B02D1374B1B681BE007F124034FF000721A6052
:2083A00007F124031B6893FAA3F207F120031A6007F11C034FF000721A6007F11C031B6888
:2083C00093FAA3F207F118031A60294B5B6A07F114024FF00071116007F11402126892FA72
:2083E000A2F107F11002116007F110021268B2FA82F2D2B242F02002D2B202F01F0201213A
:2084000001FA02F21340002B9ED12BE03B1D1B689B69012B01D1012325E0154B5B68C7F88D
:20842000FC31134BDB6AC7F8F831D7F8FC3103F4C0323B1D1B68DB699A4211D1D7F8FC31C6
:2084400003F470123B1D1B681B6A9A4208D1D7F8F83103F00F023B1D1B685B6A9A4201D045
:20846000012300E00023184607F50277BD4680BD0010024080B59EB000AF786039600023AA
:208480007B677B68002B01D1012303E27B681B6803F00103002B16D17B681B6803F0020344
:2084A000002B10D17B681B6803F00403002B0AD17B681B6803F00803002B04D140F2C321D0
:2084C000A548FDF77BFF3B68002B0AD03B68012B07D03B68022B04D04FF431719E48FDF790
:2084E0006DFF9E4B1B6803F007023B689A4210D29A499A4B1B6823F007023B6813430B607C
:20850000964B1B6803F007023B689A4201D00123C0E17B681B6803F00203002B31D07B6879
:208520009B68002B24D07B689B68802B20D07B689B68902B1CD07B689B68A02B18D07B688F
:208540009B68B02B14D07B689B68C02B10D07B689B68D02B0CD07B689B68E02B08D07B683F
:208560009B68F02B04D040F2DB217B48FDF726FF7B497B4B5B6823F0F0027B689B68134371
